:020000040800F2
:100000000050002031010008373800088B4A0008F2
:10001000373800083738000837380008000000007B
:100020000000000000000000000000003738000859
:10003000373800080000000037380008373800085B
:1000400037380008373800083738000837380008D4
:1000500037380008373800083738000837380008C4
:1000600037380008373800083738000837380008B4
:1000700037380008373800083738000837380008A4
:100080003738000837380008373800083738000894
:100090003738000837380008373800083738000884
:1000A0003738000837380008373800083738000874
:1000B0003738000837380008373800083738000864
:1000C0003738000837380008373800083738000854
:1000D0003738000837380008373800083738000844
:1000E00037380008373800080000000037380008AB
:1000F0003738000837380008373800083738000824
:100100003738000837380008373800083738000813
:100110003738000837380008373800083738000803
:1001200037380008373800083738000837380008F3
:1001300003F082FB084809490022814201D004C033
:10014000FBE707480749084A814202D008CA08C0AD
:10015000FAE701F0ADFF00DE0000002004000020FF
:100160000000002000000020406B0008F0B503AF45
:100170002DE9000F81B090468B46064604F026F824
:100180004021016104F022F88021016140F2104514
:10019000C4F200052868C00709D12868C00704BF59
:1001A00028685FEAC07002D12868C007F2D04FF615
:1001B000FE70286004F00AF84FF40001016128681D
:1001C000C00709D12868C00704BF28685FEAC0706B
:1001D00002D12868C007F2D04FF6FE70286003F005
:1001E000F5FF4FF4800101612868C00709D1286834
:1001F000C00704BF28685FEAC07002D12868C00742
:10020000F2D04FF6FE702860700001F049FAC0B2DB
:10021000002840F0868003F0D9FF8021016103F0BF
:10022000D5FF402101612868C00709D12868C007AF
:1002300004BF28685FEAC07002D12868C007F2D006
:100240004FF6FE70286003F0C1FF866803F0BEFF22
:100250004FF48001016103F0B9FF4FF40001016127
:100260002868C00709D12868C00704BF28685FEA6A
:10027000C07002D12868C007F2D04FF6FE79C5F8E9
:10028000009016F0800F02D0C6F3C01049E00BEBCF
:1002900008064FF4000804E0C5F800905FEA0A6021
:1002A00043D4B3455C4618BF013438D09BF80000F6
:1002B00001F0F6F9C0B298BBA34603F087FF802196
:1002C000016103F083FF402101612868C00709D163
:1002D0002868C00704BF28685FEAC07002D1286898
:1002E000C007F2D0C5F8009003F070FFD0F808A066
:1002F00003F06CFF4FF48001016103F067FFC0F869
:1003000010802868C007C7D12868C00704BF2868C4
:100310005FEAC070C0D12868C007F2D0BCE70020F7
:1003200030B101B0BDE8000FF0BD01200028F8D1C8
:1003300001B0BDE8000FBDE8F04001F081B9D4D4B0
:10034000F0B503AF2DE9000FCFB00290D1E905065B
:10035000D1E907543594CDE92645CDE9331501237C
:10036000ADF8C8303196002530958DF8BC300A23A1
:10037000CDE92D63CDE92B65CDE92930087C831EBD
:10038000DBB20225022B28BF2B4607934B7C9E1E17
:10039000F6B2022E28BF2E46289208321D9236AAA7
:1003A0001C32089229AA02F1140B4A7A1292D1F84F
:1003B0000C8008F13002069200F00100049008F170
:1003C0002800059003F001000390C87C199000F00C
:1003D00001001B90887C1A9000F001000C90CDE980
:1003E00009B6CDF888809DF8C900F0B10024002C32
:1003F00000F0CD80339D287A00287BD001287ED163
:10040000687A009005F10C0136A82246334601F0C7
:100410009FF9DDE93489DDE93A010122002303F087
:1004200017FE022203F017FE7AE0DDF8A8802C996F
:100430002D9D00248D42C0F09D802B98854251D87F
:100440002A9843186A1A9DF8BC00584410F8010C09
:10045000072A03D88D4206D1002429E0194603F06B
:10046000D6F8044624E04E1BC94305EB010C0021DD
:100470005D5C85421BD075186C1C10D05C186278CE
:1004800082420FD0AA1C0AD0A27882420CD0EA1C69
:1004900005D0E278824209D004317218E8D10024F4
:1004A000614605E0013102E0023100E00331012440
:1004B000012C5DD12C98084401302C909DF8BC1083
:1004C0008842B4D32B9A9042B1D8052980F048874E
:1004D000461A2A9830445A460B4603F042FE00283A
:1004E000A5D02C98E10747D03099309008EB010453
:1004F000761A47E034980F9035980E901AE0687A93
:10050000009005F10C0136A82246334601F020F98F
:10051000DDE93489DDE93A010122002303F098FD89
:1005200002460B464046494603F092FDCDE90E10C7
:10053000DDF88880D5E90001EA68D2694A4348F2CB
:100540001F53C5F2EB13A2FB0323002818BF590960
:100550006FF00040814228BF01463598084435902D
:1005600026B1701E215C0D2908BF0646B1460FE07A
:100570002D982C90E107B7D19DF8C900002800F014
:10058000EA800024DDF88880002C7FF433AF00245B
:10059000002C40F2010AC0F2110A00F0D68612992E
:1005A0000B46DFE801F01A020A13D8F81C00431EBC
:1005B0004FF0000038BF03460AE0D8F81C000138AD
:1005C0004FF0000138BF0846430806E0D8F8243051
:1005D0006FF00040834228BF0346DDE90E10002281
:1005E00003F036FD189023911A980228CDF8449014
:1005F0000FD11998022848D1D8F81850D8F820609F
:1006000020464946B9F1100F80F0BC8003F0AFF8E6
:10061000BAE01998022804F1010104EB09001390D3
:1006200067D1B9F1000F08BF21461C91D8F8180016
:100630000D90D8F820001E90B9F1000F00F0B480A2
:1006400094F90000C4B2B0F1FF3F00F3C68004F09B
:100650001F001C9B194611F8012B02F03F02E02CF1
:10066000C0F0AB80597801F03F0141EA8211F02CD3
:10067000C0F0AF809A7802F03F0242EA811100F0A8
:10068000070041EA80440333A6E0B9F1000F204699
:1006900018BF01301590D8F818001090D8F8200035
:1006A0001790B9F1000F00F0828094F90000C5B2F4
:1006B000B0F1FF3F00F3518205F01F00159B194672
:1006C00011F8012B02F03F02E02D7AD3597801F0A6
:1006D0003F0141EA8211F02DC0F03B829A7802F08E
:1006E0003F0242EA811100F0070041EA80450333EE
:1006F00032E2B9F1000F08BF21461C91D8F818006A
:100700000B90D8F820001690B9F1000F52D094F950
:100710000000C4B2B0F1FF3F00F3E58304F01F0016
:100720001C9B194611F8012B02F03F02E02C4CD320
:10073000597801F03F0141EA8211F02CC0F0CF83DB
:100740009A7802F03F0242EA811100F0070041EA84
:1007500080440333C6E301208DF8C9009DF8C8002A
:100760000028DDF8888004BFDDE9300181423FF4D4
:100770003DAE2A98DDE930124418561A002C7FF459
:1007800039AE04E702F068FCDDE909BA711900FB33
:1007900001F2189C20462399002303F056FC814661
:1007A00020460C4600F06BBD4FF4881415E04FF462
:1007B0008815D2E14FF4881495E342EA80141C9125
:1007C0000BE042EA80151591C7E142EA80141C91C2
:1007D00089E341EA003402331C930023189E02E0AF
:1007E000012840F0AF81B146D80707D01E9809EB29
:1007F0000006002320464FF4881448E0B4F5881F13
:1008000003D120464E46544641E013981C9A82423A
:10081000114618BF0131824207D092F90020D0B2B0
:10082000B2F1FF3F05DD1C912AE04FF488101C91C6
:1008300026E000F01F020D4615F8013B1C9503F061
:100840003F03E02811D34E7806F03F0646EA8313B3
:10085000F0280DD3887800F03F0040EA831002F0C2
:10086000070240EA8240033105E043EA821007E0D4
:1008700043EA023002311C9140F2010AC0F2110A2F
:100880000D9909EB0106B0F5881318BF0123224624
:1008900004460AF10100824200F04E814FF6FE70DC
:1008A000C0F21F001040B0F5881F4FF0000040F26A
:1008B0000101CFF6EF7108BF5018002890D12194A4
:1008C000CDE9246342A8414603F021F9469B002B61
:1008D0001CBFDDF814B1BBF1000F05D0439C002C08
:1008E0005CBF449E002E07D540F2010AC0F2110AF7
:1008F000DDE92463219C76E7429804EB0B018568CF
:10090000A942F1D8F118C2689142EDD81F934A93D9
:100910000021CDE94711CDF824B1D0E9000A1690A5
:100920000DF59678404647A94A46239B03F060FBA5
:100930000898414603F0BDFB3D9827903E982690CD
:10094000DDE93F98419817900020CDE936002898BE
:1009500090F80C0446F25061C0F6000151F82010E6
:10096000399146F26061C0F6000151F820003890DC
:10097000E81D20F0070000FB0641A1F1010CCDF8B5
:1009800080A0BAEBDC0F88BF8C46002908BF8C46DC
:10099000A0EB0B001090CDF850B05D46C14514DAC5
:1009A000DDE9260B834515DA0BF1010027900020C5
:1009B00070B965B32098B0EBDC0F4FF0000188BF31
:1009C00001214DD94FEADC0039E001200028F0D0A8
:1009D000022053E009F10109C1453CDA2698DDF80F
:1009E0005CB08345E0DBC145B8BF09F10109C145F1
:1009F000BFBF09F10109C14509F10109C14580F2F3
:100A0000948009F101090120C145ECDB8EE01F9AB9
:100A10007AB310981CEB000C4FF0FF3028BF8446CF
:100A20002098B0EBDC0F4FF0000188BF0121013AA4
:100A30001F92B0EBDC0F12D94FEADC00149D0721A6
:100A400021EA0C01169A105CC84000F001000CF17C
:100A5000010C012104E0012017992791B6E7149DAC
:100A6000013D31B1AA46654603F01EFBAC46554632
:100A700000E00220022818BF00F0010002281CBF7D
:100A80005C464E4655D0C0073FF488AF36A8214695
:100A90003246E24603F03BFBD44600283FF47EAFEB
:100AA000289890F80C14B3462246DFE801F00402BF
:100AB0000402A34632466FF0700000EA0B111144A5
:100AC0000020B0EB912F7FF469AF289890F80824AC
:100AD00090F809E4159590F80A5490F80BC4E3B225
:100AE0009A4228BF1A4680F808249E4588BF73465C
:100AF00080F80934F2B2954228BF154680F80A54AE
:100B0000944588BF6246D44680F80B240BF007005A
:100B1000012282401D9D6B5C23EA02020C9B03FABA
:100B200000F010436854159D38E70120CDF89CB0C3
:100B30004CE7DDF88880D7E6239C18988146DDF8DD
:100B400028A003E0239CDDF828A01898DDF824B045
:100B500095E341EA00350233159304EB09000D904B
:100B60000024189E13E0CDE92064249542A8414654
:100B700002F0CDFF469B002B1CBF459E002E19D1D5
:100B800040F2010AC0F2110A249DDDE92064B14659
:100B9000E00707D0179809EB0006002428464FF419
:100BA00088156EE1B5F5881F40F0268128464E462F
:100BB000554666E1439C002C5CBF449D002DDFD46C
:100BC0004298A119D0F808A05145D9D8E918C268AF
:100BD0009142D5D81C934A930021CDE947114996FB
:100BE000D0E900011F9116900DF59678404647A96F
:100BF0004A46239B03F0FCF90898414603F059FA52
:100C00003D9826903E982590DDF8FC903246DDE92F
:100C100040B01E900020CDE93600DDF8888028988D
:100C200090F80C0446F25061C0F6000151F8201013
:100C3000399146F26061C0F6000151F82000389009
:100C40000AF1070020F0070000FB0541A1F1010AAD
:100C50001F9BB3EBDA0F88BF8A46002908BF8A467C
:100C6000801B139014922792D94515DADDE92505EA
:100C7000854215DA681C26900020002856D1279856
:100C800050B31F98B0EBDA0F4FF0000188BF01217D
:100C900050D94FEADA0038E001200028EFD045E0D3
:100CA00009F10109D9453CDA25981E9D8542E1DB11
:100CB000D945B8BF09F10109D94532DA09F101096D
:100CC000D945BCBF09F10109D9452ADA09F1010961
:100CD0000120D945ECDB25E01C9A92B313981AEB5E
:100CE000000A4FF0FF3028BF82461F98B0EBDA0FA2
:100CF0004FF0000188BF0121013A1C92B0EBDA0FDE
:100D000016D94FEADA0014992791072121EA0A013E
:100D1000169A105CC84000F001000AF1010A012196
:100D200008E001201E9926910028A8D002200DE09D
:100D300014982790279A013A279211B103F0B4F939
:100D400000E00220022818BF00F0010002281CBFAA
:100D50004C462E463FF414AFC0077FF485AF36A84B
:100D60003146224603F0D3F900283FF47DAF28989E
:100D700090F80C1420463246DFE801F00402040229
:100D8000304622466FF0700101EA00111144002242
:100D9000B2EB912F7FF468AFDDF8A08098F80824BB
:100DA00098F809E498F80A5498F80BC4F3B29A42F8
:100DB00028BF1A4688F808249E4588BF734688F8DD
:100DC0000934E2B2954228BF154688F80A54944582
:100DD00088BF624688F80B24DDF8888000F00700A1
:100DE000012282401D9D6B5C23EA02021B9B03FAD9
:100DF00000F01043685437E715980D9A9042014669
:100E000018BF0131904207D090F90020D0B2B2F162
:100E1000FF3F05DD15912DE04FF48810159129E075
:100E20002C4600F01F020D4615F8013B159503F006
:100E30003F03E02812D34E7806F03F0646EA8313BC
:100E4000F02825460ED3887800F03F0040EA831052
:100E500002F0070240EA8240033106E043EA8210D2
:100E6000254607E043EA02300231159140F2010ABB
:100E7000C0F2110A109909EB0106B0F5881418BFE9
:100E800001242A4605460AF10100824200F0EF8162
:100E90004FF6FE70C0F21F001040B0F5881F4FF0F3
:100EA000000040F20101CFF6EF7108BF5018002892
:100EB0003FF459AE012840F0DE81D8F82000002828
:100EC0003FF465AE38902398CDE93690D8F81C00F1
:100ED0003990289836A91B9A00F0ECFC57E641EAB5
:100EE000003402331C930025189B10E0CDE91F3518
:100EF000219442A8414602F00AFE469B002B1CBFEB
:100F0000459E002E16D1DDE92148DDE91F359946C1
:100F1000E80707D0169809EB0003002520464FF498
:100F2000881476E1B4F5881F40F02C8120464B46AA
:100F300054466EE1DDF80CB1BBF1000F5CBF449D7F
:100F4000002DE0D442980BEB0601D0F80880414513
:100F5000D9D8E918C2689142D5D817934A934FF06F
:100F6000000ACDE947AA4996D0E900011E911490E4
:100F700010964BAE304647A94A46239B03F038F8FB
:100F800036A8314603F095F83A9A36982590379866
:100F90002490DDE93864CDE936AA289890F80C044D
:100FA00046F25061C0F6000151F82010399146F226
:100FB0006061C0F6000151F82000389008F1070088
:100FC00020F0070000FB05B192464A1E1E9BB3EBC2
:100FD000D20F88BF0A46002908BF0A4626921099F8
:100FE000401A0D9027911594A6420ADADDE92401F2
:100FF000814208DA0B46581C2590002000286FD14A
:101000001EE001201AE00136A64214DA2498824537
:1010100001DA5346EFE7A642B8BF0136A6420ADA24
:101020000136A642BCBF0136A64204DA01360120D1
:10103000A642F0DB00E00120CDF894A000284FD1BB
:10104000279858B11E982699B0EBD10F4FF00001A8
:1010500088BF01212AD92698C00819E0179AE2B35F
:101060000D98269D2D184FF0FF3028BF05461E987D
:10107000B0EBD50F4FF0000188BF0121013A179264
:101080002695B0EBD50F0FD92698C0081099279157
:101090000721269DA943149A105CC84000F0010066
:1010A00001352695012101E010982790279A013AF1
:1010B000279291B11D4602F0F7FF2B4602280FD070
:1010C000C007DDE9190118BF084600F001089B467A
:1010D000B146B8F1020F09D184E002200228EFD115
:1010E0004FF00208B8F1020F00F07C8036A8594694
:1010F0004A4603F00CF800283FF476AF289890F8A1
:101100000C1448465A46DFE801F00402040258462F
:101110004A466FF0700101EA001111440022B2EB5F
:10112000912F7FF461AF289B93F8082493F809E48A
:1011300093F80A4493F80BC45FFA8BF5AA4228BFD0
:101140002A4683F80824AE4588BF754683F80954BB
:101150005FFA89F2944228BF144683F80A44159C2A
:10116000944588BF624683F80B2400F007000122F3
:1011700082401D9D6B5C23EA020208FA00F01043D6
:10118000685431E713981C9A8242114618BF013106
:10119000824207D092F90020D0B2B2F1FF3F05DDC4
:1011A0001C912FE04FF488101C912BE000F01F02DF
:1011B0000D4615F8013B1C9503F03F03E02816D3BC
:1011C0004E7806F03F0646EA8313F02812D388785B
:1011D00000F03F0040EA831002F0070240EA82403C
:1011E00003310AE040F2010AC0F2110A8BE643EA39
:1011F000821007E043EA023002311C9140F2010AFA
:10120000C0F2110A0B9909EB0103B0F5881518BF5C
:101210000125224604460AF10100824227D04FF6FA
:10122000FE70C0F21F001040B0F5881F4FF00000A4
:1012300040F20101CFF6EF7108BF501800283FF4CB
:1012400055AE012817D1D8F8200000283FF45FAE32
:1012500038902398CDE93690D8F81C00399028981A
:1012600036A91B9A1E4600F025FB33464FE6239C09
:101270001898814601E0239C1898DDE909BA814558
:1012800035DDBAF1000F05D0BAF1020F1A9E08BF82
:10129000039E00E00226A9EB0005022E10D0009567
:1012A0000DF1D80840460599189A239B02F059FC85
:1012B00006F0010228984146DDF8888000F0FAFA2D
:1012C000079800283CD002281A9E189A08BF049E4E
:1012D000022E0CD0009536AD28460699239B02F0CD
:1012E00040FC06F001022898294600F0E3FA129922
:1012F0000B46DFE801F00A15021DD8F81C00013882
:101300004FF0000138BF08464308484621460022F6
:1013100002F098FECDE92610DDF84490FFF763B89F
:10132000D8F81C00431E4FF0000038BF034601E010
:10133000D8F824306FF00040834228BF0346E4E72A
:101340000226189A022EC5D1D1E70299DDE926209E
:10135000C1E90102002008704FB0BDE8000FF0BDE8
:1013600044F69452C0F600020846042102F0D9F86F
:10137000F0B503AF2DE9000F83B0CDE90023029152
:10138000054690F8188045F21446C4F2000641F272
:10139000040BCEF2000BB8F1000F52D0D5F80C9030
:1013A0004FF0000A12E0062C08BF0524052C45D09A
:1013B00048F2010046F8140C46F814AC284600F038
:1013C0001CFAA8F101085FEA086037D056F8140C3F
:1013D00040F4807046F8140CDBF8000008E00024AC
:1013E0003460052CDFD1DBF80010091A494522D200
:1013F0003168CA05F3D48A050BD44A050FD40A050F
:1014000013D4C9074FF0060408BF0524052CEAD001
:10141000C9E7C6F800A00124052CE4D0C3E7C6F84C
:1014200000A00224052CDED0BDE7C6F800A00324EE
:10143000052CD8D0B7E70424052CB9D1052C04D04D
:10144000C0E00524052C40F0BD80306802984000C3
:10145000C0B246F8040C2869DBF800103368DA05DE
:101460004FF000024FF0000410D49C0509D45C0535
:1014700009D41C0509D49A074FF005040ED40122A3
:1014800005E0012402E0022400E0032432602AB1D6
:10149000DBF80020521A8242E0D30424022C00F030
:1014A0008B80052C40F08E8030687068009B187827
:1014B00046F8040C0199002900F0BB80012949D0AD
:1014C00003EB010C69699A1C03F101084FF0000E4F
:1014D0001346DBF8002008E000243460052C26D1F8
:1014E000DBF80000801A884227D23468E005F3D484
:1014F000A0050BD460050FD4200513D420064FF0AF
:10150000060458BF0524052CEAD010E0C6F800E018
:101510000124052CE4D00AE0C6F800E00224052CE2
:10152000DED004E0C6F800E00324052CD8D0062C59
:1015300008BF0524052C03D03CE00424052C39D138
:1015400098F8000046F8040C63451A4618BF0132AB
:101550009846BDD16869DBF80010002208E000243D
:101560003460052C23D1DBF800305B1A83425CD257
:101570003368DC05F3D49C050BD45C050ED41C0544
:1015800011D45B074FF0060458BF0524052CEAD0A0
:101590000DE032600124052CE5D008E03260022421
:1015A000052CE0D003E032600324052CDBD0062CB0
:1015B00008BF0524022C05D156F8140C40F4007025
:1015C00046F8140C052C2CD156F8140C40F400707D
:1015D00046F8140C6869DBF8001056F8142C9205D4
:1015E0001FD5DBF80020521A82421AD256F8142C6A
:1015F000920516D5DBF80020521A824211D256F815
:10160000142C92050DD5DBF80020521A824208D224
:1016100056F8142C920504D5DBF80020521A8242A9
:10162000DBD303B0BDE8000FF0BD0424022CC9D108
:10163000C2E744F68442C0F60002012001F036FB06
:10164000D0B502AF02F0C2FD4021016140F210446A
:10165000C4F200042068C00709D12068C00704BF95
:1016600020685FEAC07002D12068C007F2D04FF650
:10167000FE70206002F0AAFD802101612068C00791
:1016800009D12068C00704BF20685FEAC07002D19A
:101690002068C007F2D04FF6FE7020600020D0BD59
:1016A000F0B503AF2DE9000F81B0002440F21045E2
:1016B000C4F200055FFA80F94FF6FE764FF4800A17
:1016C0004FF4000B00E02E602046072CD8BF441CCE
:1016D000072837DCC0F1070000F0070029FA00F006
:1016E000C0074FF0800808BF4FF4000802F06EFDFD
:1016F000C0F8108002F06AFD402101612868C0072F
:1017000009D12868C00704BF28685FEAC07002D109
:101710002868C007F2D02E6002F058FDC0F810A073
:1017200002F054FDC0F810B02868C007CBD128687B
:10173000C00704BF28685FEAC070C4D12868C0072A
:10174000F2D0C0E7002001B0BDE8000FF0BDD4D456
:10175000F0B503AF2DE900071E463B7A90460D46D3
:101760000446DFE803F01B020D142868C069431E1D
:1017700038BF00236FF00040834228BF03460DE0CE
:101780002868C069013838BF0020430806E028688F
:10179000406A6FF00043984238BF034600200021A2
:1017A000002202F055FC81468A4640463146102E02
:1017B00002D201F0DCFF01E001F04EFC2B689A69D7
:1017C000196A2E79022E1ABFD3E90C361E44DE693F
:1017D0000A445043451A4FF0000038BF0546002127
:1017E0002A46002302F031FCC4E9009AC4E90256FB
:1017F000C4E90401BDE80007F0BDF0B503AF4DF842
:1018000004BD014680684DF68362C4F21B32A0FB22
:101810000223C3F3854245F20044C4F2000462602F
:10182000002222609A0C4D680B78A3B14FF4967396
:101830005A4392B2D20842F2C5035A43012303EB42
:10184000125202F03F0222624E7802F0AEFC9EB1CC
:101850004DB3192112E0511C01F03F01216202F049
:10186000A4FC69001FD0B0FBF1F080B2042898BF3F
:1018700004206FF31F300EE0ADB103216943B0FBCC
:10188000F1F080B2012898BF01206FF31F3040EAC9
:10189000863000F50040E061206840F001002060E3
:1018A0005DF804BBF0BD44F6D430C0F6000001F092
:1018B0006EFED4D4F0B503AF2DE9000F8BB00492C7
:1018C000804606A802F0F5FB0A980290069805905B
:1018D00007980390DDE908AB0020CDE9060098F8F1
:1018E0000C0446F25061C0F6000151F82010099135
:1018F00046F26061C0F6000151F82000089008F13E
:10190000080001906FF07005DA4507DA0398059931
:10191000814205DA481C0590002021E001201FE0EB
:101920000AF1010ADA4516DADDE902108142F1DB3B
:10193000DA45B8BF0AF1010ADA45BFBF0AF1010A68
:10194000DA450AF1010ADA4508DA0AF1010A01204A
:10195000DA45EDDB03E00120029900E0012005916A
:10196000002804BF54460E46DDF8109018BF4FF013
:101970000209002846D106A83146224602F0C7FBDC
:101980000028C1D098F80C1420463246DFE801F058
:10199000040204023046224605EA001111440022E6
:1019A000B2EB912FB0D198F8082498F809E4454695
:1019B00098F80A8495F80BC4F3B29A4228BF1A46E5
:1019C00085F808249E4588BF734685F80934E2B23D
:1019D000904528BF904685F80A84A846944588BF5C
:1019E000624685F80B2400F0070001228240019D29
:1019F0006B5C23EA020209FA00F0104368546FF0AE
:101A0000700581E70BB0BDE8000FF0BDD0B502AFA7
:101A100082B0044680F80C14C8B20FF20601DFE869
:101A200000F00215050740F2131010E0132001E04A
:101A300040F2131027F80D0CA7F10D00214600F01D
:101A4000CBF9C0B2072816D115200CE0132027F8D7
:101A50000D0CA7F10D00214600F0BEF9C0B2072819
:101A600009D140F2151027F80D0CA7F10D00214601
:101A700000F0B2F9C0B202B0D0BDD0B502AF84B0B0
:101A80000446022007F8100C40F2191027F8120C37
:101A9000A7F11200214600F09FF9C0B2072809D132
:101AA00045F6037027F80D0CA7F10D00214600F054
:101AB00093F9C0B204B0D0BDF0B503AF2DE9000F6B
:101AC0008DB097F808E05FEADE061CD0013EA6FB69
:101AD00002450826002D04BF0025B5EB942F40F0E9
:101AE0008E80A618A5184FF4806CB5F5806F28BFBE
:101AF0006546A64238BF6546A542C0F09880294495
:101B0000C5F5806C01E04FF4806C3E7CA6EB0E06C0
:101B1000F5B2012606EBD509FE685FFA86FE5FFA8C
:101B200083F8AEEB080B04794079019008A8451CB6
:101B300044F6043AC0F6000ACDE904E2CDE902B861
:101B4000BCF1000F09D09445134638BF6346ACEB97
:101B5000030CCE18084620B950E000200E4600289D
:101B60004CD0C64553D3734559D30796BBF1000FEC
:101B700031D0CDF818C0002108918DF830100B91AC
:101B8000CDE9091101998DF820104044D846B8F1EB
:101B9000000F0BD0B8F1100F464628BF1026A8EB57
:101BA000060800EB060B02461AB919E0002283462C
:101BB000B2B1CDF800A028463146334602F02CFAE7
:101BC000721C204608A9FEF7D1FAC0B20028584678
:101BD000DDD0012605E00726B9F101090AD10EE0A2
:101BE0000726DDF818C0DDE904E2DDE902B8B9F145
:101BF000010904D0072E0799A2D000E00826082E7C
:101C000008BF072630460DB0BDE8000FF0BD44F612
:101C10008052C0F600024046714601F0CBFC44F60B
:101C20008052C0F600027046194601F07AFC44F674
:101C30001862C0F600022046294601F0BBFCD4D44D
:101C4000F0B503AF2DE9000F87B090F8085490F875
:101C50000924AA42C0F0BB80044690F80AB490F868
:101C60000B145945C0F0B38004F10800049094F8B7
:101C70000C04C30044F28006C4F2800626FA03FA7C
:101C800048F24006C8F2400626FA03F9DFE800F001
:101C9000020C020C5FFA8AF60132D2B2B24238BFAD
:101CA000164641F0070107E042F007025FFA8AF6A4
:101CB000B24238BF164601314FF0FF12C4F8082473
:101CC000C9B25FFA89F8414538BF8846DFE800F0BD
:101CD0000240024007F8205C0F2007F8210C701E1C
:101CE00038BF002007F81F0CA7F12100214600F0A3
:101CF00073F8C0B207286AD194F80D0402281DD0E9
:101D0000B8F1010938BF4FF00009584602F039FA1E
:101D10000390484602F035FA0399C9B207F8201C2F
:101D2000102107F8211CC0B207F81F0CA7F12100F1
:101D3000214600F051F8C0B2072848D1CDE900B6DD
:101D4000CDF808800AF0C002204604992B463CE0FA
:101D500007F820BC0F2007F8210CB8F1010038BFAC
:101D6000002007F81F0CA7F12100214600F034F8ED
:101D7000C0B207282BD194F80D0402281DD0B6F16B
:101D8000010A38BF4FF0000A284602F0FAF9039022
:101D9000504602F0F6F90399C9B207F8201C102149
:101DA00007F8211CC0B207F81F0CA7F1210021463B
:101DB00000F012F8C0B2072809D1CDE90058029608
:101DC00009F0C002204604995B46FFF775FE07B094
:101DD000BDE8000FF0BDD4D4B0B502AF86B00C465C
:101DE0000178CA1ED3B21B2B28BF0522D2B2DFE86E
:101DF00012F01B00960077008D002F00AA00F30060
:101E0000900002015C00FA0028005600D80025006E
:101E10007A0022009900F6002A01A000D0002001DB
:101E20003101680061003901407807F8160C812003
:101E300007F8170C20E14078A030DFE04078B030A0
:101E4000DCE0407807F8160C202007F8170C13E1A7
:101E500041788278C37800794FF47F4527F8125C87
:101E600007F8130C07F8142C07F8153C002007F8A6
:101E7000160C263107F8171CCDE9040044F6F420AF
:101E8000C0F60000009004AD681CA7F117020721FE
:101E9000072302F0C1F8207929460822FFE0B0F8B4
:101EA000010027F8160C212080E04078012161F321
:101EB0001F101CE040788D2107F8171C800010309F
:101EC000D8E00020CDE9040044F6F420C0F600007C
:101ED000009004AD681C44F69052C0F600029BE0EE
:101EE0004078A6308AE04078012161F39F1007F81E
:101EF000170C0020CDE9040044F6F420C0F60000E1
:101F0000009004AD681CA7F1170286E04078AE305F
:101F100074E0B0F8010027F8160CA32046E04078E2
:101F2000A4306BE0407807F8160CA82007F8170CCF
:101F3000A2E041788078DA2207F8172C090141EAFB
:101F40004010023096E042788378C578007907F82F
:101F5000120C07F8135C07F8142C07F8153C002046
:101F600007F8160C41F0280107F8171CCDE904000A
:101F700044F6F420C0F60000009004AD681CA7F100
:101F800017020621062302F047F820792946072286
:101F900085E041788078D52207F8172C00F00F00F3
:101FA00066E0B0F8010027F8160C222007F8170C9D
:101FB0000020CDE9040044F6F420C0F600000090B3
:101FC00004AD681CA7F117020321032302F024F8D3
:101FD00020792946042262E040782E300EE04078D5
:101FE000C000C0300AE0407800F00F0107F8171C6D
:101FF000000910303EE0407800F00F0007F8170CA1
:102000000020CDE9040044F6F420C0F60000009062
:1020100004AD681CA7F117020121012301F0FCFFA8
:10202000207929460222FEF7A1F801460120C9B213
:1020300039E041788078D92207F8172C01F00F0198
:1020400041EA001016E0407807F8160CD32007F894
:10205000170C11E04078000107F8160CDB2007F898
:10206000170C09E041788078AD2207F8172C400161
:1020700040EA011007F8160C0020CDE9040044F6F0
:10208000F420C0F60000009004AD681CA7F1170210
:102090000221022301F0C0FF207929460322FEF726
:1020A00065F8C1B20120002908BF072006B0B0BD05
:1020B00080B56F4600F000F880B56F46ADF5B36DA2
:1020C00002F00EFB044602F007FB40F20100C2F2F0
:1020D00000000578002D04BF01210170E00708BF52
:1020E00002F0FCFA2DB144F67060C0F6000001F079
:1020F00084FA02F0F5FA044602F0EEFA40F200002B
:10210000C2F200000578002D04BF01210170E00734
:1021100008BF02F0E3FA2DB144F68060C0F600007B
:1021200001F06BFA02F0B7FA02F0C0FA02F0C9FA55
:1021300002F051F84FF00054046102F04CF802F044
:102140004AF84168032262F31751416002F043F8F4
:102150000461002616964AF20020C0F24A4015900B
:1021600001241494129645F20010C0F22520CDE906
:1021700010400E9641F20020C0F27A00CDE90C40EA
:10218000A7F190050DF130082846414602F016F9F6
:102190000DF1100A7A1E5046294602F026F85046E4
:1021A00002F06EFA0A9002F001F88DF82F0002F0AA
:1021B00012F84FF4005BC0F810B00AA844F24021B6
:1021C000C0F20F0102F0FCF902F000F84FF48001B8
:1021D000016101F0FBFF01F0F9FF0168072565F3DC
:1021E0001B61016001F0F2FF4FF40001016101F099
:1021F000EDFF01F0EBFF016865F31F71016040F234
:102200000420C4F24220C0F88041046006605046B9
:1022100002F0CDF8054640F20040C4F2000001682B
:1022200021F0010101604FF6FE7101614662290A49
:1022300048F65932C0F24F12A1FB02124FF0FF31A3
:1022400001EB12110B0C836204EB11411209B2FB7A
:10225000F1F102290ED30139C162016841F0040194
:1022600001604461016821F004010160016841F0EE
:102270000101016001F0AFFFC0F810B008F10804DF
:1022800020464FF4806102F011FB44F23C00CDE99E
:102290000C504FF0FF10CDF838044FF40070ADF83B
:1022A0003C0401210020265401F001010844B0F54E
:1022B000806F15D0265418BF0130B0F5806F0FD055
:1022C000265418BF0130B0F5806F09D0265418BFCE
:1022D0000130B0F5806118BF0121B0F5806FE2D107
:1022E0004FF0000A8DF83AA48DF838A49DF83C64AC
:1022F000F00047F63F71C7F63F71C1408DF83B14BF
:1023000043F67F71C3F67F7121FA00F08DF839042E
:10231000062027F8900CA7F190000CA9FFF75CFDB0
:10232000C0B2072840F0A18007F88EAC40F6180034
:1023300027F8900CA7F190000CA9FFF74DFDC0B253
:10234000072840F0928043F6147027F8900CA7F10C
:1023500090000CA9FFF740FDC0B2072840F085802F
:10236000162027F8900CA7F190000CA9FFF734FD78
:10237000C0B2072879D1122027F8900CA7F190005D
:102380000CA9FFF729FDC0B207286ED14FF48E705B
:1023900027F8900CA7F190000CA9FFF71DFDC0B223
:1023A000072862D10E2027F8900CA7F190000CA905
:1023B000FFF712FDC0B2072857D1002007F88E0C96
:1023C00040F2171027F8900CA7F190000CA9FFF726
:1023D00003FDC0B2072848D10CA83146FFF716FB11
:1023E000C0B2072841D10CA8FFF747FBC0B20728AD
:1023F0003BD140F21A4027F8900CA7F190000CA9AD
:10240000FFF7EAFCC0B207282FD1042027F8900C70
:10241000A7F190000CA9FFF7DFFCC0B2072824D178
:10242000052027F8900CA7F190000CA9FFF7D4FC29
:10243000C0B2072819D1092027F8900CA7F1900005
:102440000CA9FFF7C9FCC0B207280ED14FF4837066
:1024500027F8900CA7F190000CA9FFF7BDFCC0B2C3
:10246000072804BF00208DF83D0401F0B4FE4FF0B2
:1024700000510161A7F190063046002101F0C4FD32
:1024800040F20220C0F2012047F8800C46F21820EA
:10249000C0F6000047F8840C47E91DAA4FF0010B75
:1024A00047F878BC46F25858C0F6000847F87C8CCC
:1024B0000DF27C400CAD31462A46FDF741FF28461F
:1024C000FFF7BEFB01F08CFE01F08AFE016841F0CF
:1024D0007061016001F084FE01F082FE016841F04C
:1024E00070410160DDF81490079D9DF82F600DF19B
:1024F0002F0001F067FE01684FF6FD72CFF6FF0274
:102500001140002E08BF01F10071016040F204206B
:10251000C4F24220C0F8D0B1C0F850B0C0F850A00A
:102520004FF4C87002F04BF8BAF1000F40F0B383DB
:1025300041F68020C0F2060041F67F21C0F206017C
:10254000884240F2A88347F88C0C012647F8906C2B
:1025500047F8889CA7F19000FFF74FF9A7F1900288
:1025600007CACDF84C24CDF84814CDF844044FF0F8
:10257000600B8DF860B44FF00A098DF85C944DF64D
:102580008360C4F21B30A5FB0001880C4FF47A7104
:102590004843CDF85804CDF85404CDF85004A7F1C1
:1025A000900A00255046002101F02EFD414640F2E0
:1025B0000228C0F2012847F8808C46F21820C0F6A5
:1025C000000047F8840C47F8705CA7F17C0080E8B5
:1025D00042020DF27C400DF1300951464A46FDF7AA
:1025E000AFFE4846FFF72CFB07F88E5C27F890BC3F
:1025F0000DF24440A7F1900260210323FEF7B8FEDC
:1026000001F0E4FD4FF00061016101F0DFFD01F038
:10261000DDFD4168072262F30F31416001F0E0FD0A
:102620004FF48051016101F0DBFD41684FF0080A71
:102630006AF31341416001F0D3FD4FF40051016191
:1026400001F0CEFD41686AF31751416001F0C8FD09
:102650004FF48041016101F0C3FD41686AF31B61E1
:10266000416001F0BDFD4FF40041016101F0B8FD92
:1026700041686AF31F714160A7F1900A504600213A
:1026800001F0C2FC47F8808C46F21820C0F600002A
:1026900047F8840C47F8705C0C2047E91E6046F24E
:1026A0005850C0F6000047F87C0C0DF27C405146B3
:1026B0004A46FDF745FE4846FFF7C2FA002025547A
:1026C00006F001010844B0F5806F15D0255418BFFD
:1026D0000130B0F5806F0FD0255418BF0130B0F530
:1026E000806F09D0255418BF0130B0F5806618BF3F
:1026F0000126B0F5806FE2D100258DF83A548DF8AF
:1027000038549DF83C04C000C0B247F63F71C7F68C
:102710003F71C1408DF83B1443F67F71C3F67F7162
:1027200021FA00F08DF83904A7F190084046002105
:1027300001F06AFC40F20220C0F2012047F8800C50
:1027400046F21820C0F6000047F8840C47E91D55F2
:10275000072047F8780C46F25950C0F6000047F8B9
:102760007C0C0DF27C400CAE41463246FDF7E8FD94
:102770003046FFF765FA01210020255401F00101E0
:102780000844B0F5806F15D0255418BF0130B0F55E
:10279000806F0FD0255418BF0130B0F5806F09D07D
:1027A000255418BF0130B0F5806118BF0121B0F584
:1027B000806FE2D14FF0000B8DF83AB48DF838B449
:1027C0009DF83C04C000C0B247F63F71C7F63F71A8
:1027D000C1408DF83B1443F67F71C3F67F7121FA37
:1027E00000F08DF839040AAD284644F24021C0F2C9
:1027F0000F0101F0E5FE0DF27C484FF000090026C4
:1028000021E046F20460C0F6000050F82960284636
:10281000002101F0F9FB47E9218A322047F8700CCA
:10282000682047F8740C032047E91F600DF27C48CC
:10283000404629460CAD2A46FDF782FD2846FFF7A3
:10284000FFF90AAD039E01F0CBFC8068C00412D4EE
:102850002846142101F0E2FE01F0C2FC8068C004A9
:10286000FAD52846142101F0D9FE042E4FF00000BD
:1028700038BF701C064601F0B3FC8068800414D495
:102880002846142101F0CAFE01F0AAFC80688004E9
:10289000FAD52846142101F0C1FEB9F10A0F4FF014
:1028A000000038BF09F10100814601F099FC806801
:1028B00040040CD42846142101F0B0FE01F090FC35
:1028C00080684004FAD52846142101F0A7FE01F0E3
:1028D00087FC806800040CD42846142101F09EFE79
:1028E00001F07EFC80680004FAD52846142101F02E
:1028F00095FE0120002E18BFB9F1000F40D0701EC8
:10290000032800F2A781DFE800F0022B101EA9F1D6
:102910000100B9F10B0F80F0A28146F26051C0F6C0
:10292000000101EB40003C3027E0A9F10100B9F1C2
:102930000B0F80F09B8146F26051C0F6000101EB65
:102940004000143019E0A9F10100B9F10B0F80F03B
:10295000948146F26051C0F6000101EB40000CE0AA
:10296000A9F10100B9F10B0F80F08E8146F26051A0
:10297000C0F6000101EB40002830008801900020E3
:1029800070B901986FF31F3040BA27F8900C9DF88A
:1029900060140DF24440A7F190020223FEF7E8FC18
:1029A000CDE902960020012104F800B001F00101F8
:1029B0000844B0F5806F18D004F800B018BF01309B
:1029C000B0F5806F11D004F800B018BF0130B0F539
:1029D000806F0AD004F800B018BF0130B0F58061F4
:1029E00018BF0121B0F5806FDED18DF83AB48DF8B3
:1029F00038B49DF83C64F00047F63F71C7F63F716C
:102A0000C1408DF83B1443F67F71C3F67F7121FA04
:102A100000F08DF8390440F20210C0F20100CDF848
:102A200078040120CDF874042D20CDF870048021A5
:102A3000CDF86C14CDF86804CDF864B49DF87954E1
:102A400040460DF26441012201F039FA022D18BF0F
:102A500005F001058DF8F45446F25060C0F6000010
:102A600050F8260047F8940C46F26060C0F600006B
:102A700050F8260047F8980C47E928BBA7F19000CA
:102A800041467C2201F075FFA7F1A00517F8186CEC
:102A9000022E05D14FF00208B8F1020F14D15EE00A
:102AA000A7F11000A7F1900101F032FAA7F110028E
:102AB00007CA00284FF002081EBF06F00108924620
:102AC0008946B8F1020F4AD028464946524601F0DD
:102AD0001EFB0028DAD09DF83C1450464A46DFE839
:102AE00001F004020402484652466FF0700101EA08
:102AF00000111144BBEB912FC8D15FFA89F29DF808
:102B000038349DF839649DF83A54A4469DF83B4406
:102B1000934228BF13468DF83834964288BF324618
:102B20008DF839245FFA8AF2954228BF15468DF850
:102B30003A54A7F1A005944288BF224664468DF816
:102B40003B2400F00700012282401CF8013023EAF8
:102B5000020208FA00F010430CF8010096E7A7F112
:102B6000900A5046002101F04FFA40F20226C0F2CE
:102B7000012647F8806C46F22055C0F6000547F85C
:102B8000845C322047E91DB0052047F8780C44F6F4
:102B90002860C0F6000047F87C0C0DF27C484046E7
:102BA00051460DF130094A46FDF7CAFB5046002157
:102BB00001F02AFA47E92156322047F8700C5C20D0
:102BC00047F8740C062047F8780C44F62D60C0F6E0
:102BD000000047F87C0C404651464A46FDF7B0FBE2
:102BE0000399042906D846F2F050C0F6000050F8C8
:102BF000216003E044F63D66C0F60006DDF808906B
:102C0000A7F190052846002101F0FEF940F2022AC2
:102C1000C0F2012A47F880AC46F22058C0F60008FE
:102C200047F8848C322047F8700C0C2047F8740C5D
:102C3000022047E91F600DF27C4029460CAAFDF7EF
:102C40007FFBB9F10A0F7FF6DCAD44F66066C0F693
:102C50000006DCE5012000283FF493AEA0E646F232
:102C6000B052C0F600020A2100F024F846F2D05219
:102C7000C0F600020A2100F01DF846F2E052C0F64C
:102C800000020A2100F016F846F2C052C0F6000217
:102C90000A2100F00FF844F64240C0F6000044F666
:102CA0007442C0F60002322100F05EFC80B56F462F
:102CB00000F018FC80B56F468CB0CDE90001002013
:102CC00006900220039008490291059008A80490FC
:102CD00006480B906946CDE9090101A8089002A8B1
:102CE000114600F07AF800BFF8660008F12C0008E1
:102CF000F0B503AF2DE9000F87B00B46046842F230
:102D000010718C42A7F1260C46F20878C0F6000834
:102D10003BD30393002041F25979CDF2B71941F228
:102D20007B4A4FF0640B4EF2FF0EC0F2F55E0CEBE7
:102D30000005A4FB0936730B03FB114662461FFA1C
:102D400086FC4FEA9C01944601FB0AF1490C38F8D5
:102D50001120EA8001FB1B6189B238F8111029812A
:102D600042F21071043874451C46E0D800F10A01A3
:102D70001C46039B632C0BD820460A2819D338F82D
:102D8000100002392CF8010018E00A21632CF3D955
:102D9000A0B2800841F27B425043400C642200FB09
:102DA000124292B238F8122002392CF801200A2877
:102DB000E5D2013940F030000CF80100C1F10A0001
:102DC0006144CDE90010184601210122002300F0E2
:102DD0000FF807B0BDE8000FF0BD80B56F4684B0B6
:102DE0000122ADF80C20CDE9010101A801F0C8F9DC
:102DF000F0B503AF2DE9000F85B099461446FD6884
:102E000059B1D0F814B01BF0010101EB050A4FF0E5
:102E10002B0108BF4FF4881104E0D0F814B005F17D
:102E2000010A2D210491D7F808805FEA4B7101D483
:102E300000245EE0B9F1100F34D2B9F1000F39D09F
:102E40005FEA990109F0030C4FF0000234D00395BA
:102E500001F00301A2EB8103A646E61E002116F94C
:102E6000045F16F9014C14F1410FC8BF013115F18F
:102E7000410FC8BF013196F9015015F1410FC8BF8C
:102E8000013196F9025015F1410FC8BF0131043AE2
:102E90009342E4D153420A46039D7446BCF1000FAD
:102EA0000ED125E006462046494600F0D5F80246F8
:102EB00030461DE000221BE00023BCF1000F17D0BC
:102EC000E15611F1410FC8BF0132BCF1010F0FD023
:102ED000E11891F9013013F1410FC8BF0132BCF183
:102EE000020F05D091F9021011F1410FC8BF013254
:102EF00092440168B9B1CDF80C80D0F80480D04577
:102F000021D95FEA0B7134D4A8EB0A02017E0329B0
:102F100008BF0121002952D0A346AA46012952D157
:102F20001146002252E02346D0E90746CDF8009032
:102F300020463146049A00F0B2FA00287AD1F368AC
:102F4000204641460EE02346D0E90746CDF80090E2
:102F500020463146049A00F0A2FA00286AD1F368AC
:102F6000204603992A4605B0BDE8000FBDE8F040B1
:102F70001847D0F810B030210161017E0191012184
:102F8000017602902346D0E90746CDF8009020460E
:102F90003146049A00F083FA0146012000294AD103
:102FA000A946A8EB0A00451CDDF80C80013D3BD08A
:102FB00032692046302190470028F7D03AE002924B
:102FC000A346AA4603E051080132520802924D1C62
:102FD0000669D0E90748013D07D0D8F810202046FF
:102FE000314690470028F6D024E0CDF800902046E6
:102FF0004146049A5B4600F052FAD8B9D8F80C3032
:103000002046039952469847A0B90025DDF808905C
:10301000A9451BD0D8F810202046314690470135ED
:103020000028F5D0691E12E0F368204641464A4662
:10303000984720B1012005B0BDE8000FF0BDDDE9E3
:1030400001100176C0F810B00020F4E749460020D6
:10305000494538BF0120EEE7F0B503AF2DE9000F79
:1030600081B08246033020F00304A4EB0A084145F6
:103070002ED2002941D08B0801F003014FF000004F
:1030800000F0EF81A0EB8303AAF10306002516F9F7
:10309000042F16F9014C14F1410FC8BF013512F18C
:1030A000410FC8BF013596F9012012F1410FC8BF89
:1030B000013596F9022012F1410FC8BF01350438DD
:1030C0008342E4D143422846002940F0CC81E2E12A
:1030D000A1EB080E5FEA9E09CBD00EF0030C54451D
:1030E00001D1002045E0AAEB040010F1040F06D93D
:1030F00000200021544523D13BE00020CBE1AAF180
:1031000003050021002015F9046F15F9012C12F1B7
:10311000410FC8BF013016F1410FC8BF013095F90A
:10312000012012F1410FC8BF013095F9022012F1C0
:10313000410FC8BF01300439E5D14942544518D088
:103140001AF9012012F1410FC8BF0130B8F1010F87
:103150000FD0514491F9012012F1410FC8BF013045
:10316000B8F1020F05D091F9021011F1410FC8BF5B
:1031700001300AEB08020026BCF1000F1AD02EF035
:103180000301114491F9005015F1410FC8BF012608
:10319000BCF1010F0ED091F9015015F1410FC8BFDC
:1031A0000136BCF1020F05D091F9021011F1410F67
:1031B000C8BF013630444FF0FF1811E00026A9EBDC
:1031C0000B090AEB8B021BF0030508EA162126F017
:1031D000FF23194401EB014100EB114040F0148141
:1031E000B9F1000F00F057819246B9F1C00FCB46FC
:1031F00028BF4FF0C00BB9F1040FDFD36FF00F0100
:1032000001EB8B02012101EB1211302A009102D255
:10321000002655468AE021F003020026554695E82F
:103220000A506FEA01084FEAD81444EA911121F0DC
:10323000FE313144DC43E40944EA931323F0FE33C6
:1032400019446FEA0C03DB0943EA9C1323F0FE33B5
:1032500019446FEA0E03DB0943EA9E1323F0FE33A1
:1032600019442B69DE43F60946EA931323F0FE3333
:1032700019446B69DE43F60946EA931323F0FE33E3
:103280001944AB69DE43F60946EA931323F0FE3393
:103290001944EB69DE43F60946EA931323F0FE3343
:1032A00019442B6ADE43F60946EA931323F0FE33F2
:1032B00019446B6ADE43F60946EA931323F0FE33A2
:1032C0001944AB6ADE43F60946EA931323F0FE3352
:1032D0001944EB6ADE43F60946EA931323F0FE3302
:1032E00019442B6BDE43F60946EA931323F0FE33B1
:1032F00019446B6BDE43F60946EA931323F0FE3361
:103300001944AB6BDE43F60946EA931323F0FE3310
:103310001944EB6BDE43F60946EA931323F0FE33C0
:103320005E18043A05F140057FF479AF009911F079
:10333000030C4FF0FF183FF442AF95E81A40CA4320
:10334000D20942EA911121F0FE313144DA43D20927
:1033500042EA931222F0FE321144E243D20942EAD9
:10336000941222F0FE3211446FEA0E02D20942EAB0
:103370009E1222F0FE325618BCF1010F3FF41FAF2F
:1033800005F1100E9EE80E40CC43E40944EA911189
:1033900021F0FE313144D443E40944EA921222F090
:1033A000FE321144DA43D20942EA931222F0FE328D
:1033B00011446FEA0E02D20942EA9E1222F0FE3256
:1033C0005618BCF1020F3FF4FAAE20352ECDCC4397
:1033D000E40944EA911121F0FE313144D643F60963
:1033E00046EA921222F0FE321144DA43D20942EA4E
:1033F000931222F0FE321144EA43D20942EA9512B6
:1034000022F0FE325618DAE60BF0FC035AF82310CD
:10341000CA43D20942EA911121F0FE32012D13D0A4
:103420000AEB83014B68DE43F60946EA931323F067
:10343000FE331A44022D07D08968CB43DB0943EAE7
:10344000911121F0FE310A44FF21C0F2070101EA87
:10345000122122F0FF22114401EB014100EB114047
:1034600019E00023B9B11AF9032012F1410FC8BFC6
:10347000013001290FD00AEB030292F9013013F158
:10348000410FC8BF0130022905D092F9021011F195
:10349000410FC8BF013001B0BDE8000FF0BDF0B56D
:1034A00003AF4DF8048D1C460E46D7F80880B2F5E0
:1034B000881F0AD0336905461146984701462846B9
:1034C00019B101205DF8048BF0BD3CB1F3682146D1
:1034D00042465DF8048BBDE8F040184700205DF8D7
:1034E000048BF0BD80B56F468CB0CDE900010020A3
:1034F00006900220039046F62801C0F600010291D2
:10350000059008A8049042F6F140C0F600000B9028
:1035100001A9CDE909016846089002A81146FFF704
:103520005CFC80B56F4600F000F880B56F468CB04B
:10353000CDE90001002006900220039046F63801F4
:10354000C0F600010291059008A8049042F6F140EF
:10355000C0F600000B9001A9CDE90901684608906A
:1035600002A81146FFF739FC80B56F4688B0944633
:10357000002304930122019206AA009203930422DD
:103580000292CDE9060168466146FFF726FC80B548
:103590006F4686B00146002004900122019246F257
:1035A000EC72C0F60002009203900420029068467C
:1035B000FFF713FC80B56F4600F000F880B56F464A
:1035C0008CB0CDE90001002006900220039046F661
:1035D0006C01C0F600010291059008A8049042F623
:1035E000F140C0F600000B9001A9CDE90901684641
:1035F000089002A81146FFF7F0FB80B56F4602461F
:1036000046F29960C0F600002B21FFF7ADFFF0B540
:1036100003AF4DF8048DCB1C23F003035FFA80FE4B
:103620008B4221D0581A904228BF1046E0B1434245
:103630004FF0000C11F80C4074456CD003EB0C04F7
:10364000651C4FD001EB0C056E7876455BD0A61C4F
:1036500048D0AE78764559D0033443D0EC787445E1
:1036600057D00CF1040CE5E7A2F1080C00204FF054
:1036700001330EFB03F340F20018C0F201180D589D
:103680005D40A8EB050635430E1876685E40A8EB52
:10369000060434432C4024F07F34B4F1803F02D13F
:1036A00008306045EBD9904201D1002034E00B187E
:1036B000821A00215E5C764522D055186E1CF4D02B
:1036C0005C186678764512D0AE1CEED0A6787645AA
:1036D00011D0EE1CE9D0E678764510D004315618AA
:1036E000E8D1E2E7A2F1080C6045C0D9DBE701317F
:1036F00001EB000C0FE0023101EB000C0BE0033199
:1037000001EB000C07E00CF1010C04E00CF1020CE1
:1037100001E00CF1030C012061465DF8048BF0BD63
:1037200080B56F4603460846194600F000F880B59C
:103730006F468CB0CDE90001002006900320039075
:1037400046F6D000C0F6000002900220059008A8BE
:10375000049042F6F140C0F600000B9001A9CDE9BB
:1037600009016846089002A81146FFF736FB0029B8
:1037700004BF00207047B0B502AF86468A0801F04A
:10378000030C4FF0000025D0A0EB8203AEF1030143
:10379000002211F9044F11F9015C15F1410FC8BF66
:1037A000013214F1410FC8BF013291F9014014F107
:1037B000410FC8BF013291F9024014F1410FC8BF57
:1037C000013204388342E4D141421046BCF1000F7B
:1037D00004D1B0BD0021BCF1000FFAD01EF90120C8
:1037E00012F1410FC8BF0130BCF1010FF1D071449B
:1037F00091F9012012F1410FC8BF0130BCF1020F55
:10380000E7D091F9021011F1410FC8BF0130B0BDEE
:1038100080B56F4686B001460020049001220192D7
:1038200046F29062C0F600020092039004200290DB
:103830006846FFF7D2FAFEE77047B0B502AFD1E9AC
:10384000002E72451ABF531C0B60002232B392F94E
:103850000020D3B2B2F1FF3F26DC0D682A4612F8F1
:10386000014B0A6003F01F0C04F03F04E02B19D356
:10387000AA1C0A606A7802F03F0242EA8414F02B24
:1038800019D3EA1C0A60AA7802F03F0242EA8412C5
:103890000CF0070342EA83433BB910E04FF488136E
:1038A0001BB90CE044EA8C134BB1B3F5881F9C465E
:1038B00000F0818083E044EA0C33002BF5D10A68E4
:1038C00072451ABF531C0B6000225AB392F90020B4
:1038D0005FFA82FCB2F1FF3F2CDC0A68134613F852
:1038E000014B0B600CF01F0304F03F04BCF1E00F30
:1038F0001ED3951C0D60557805F03F0545EA8414EC
:10390000BCF1F00F49D3D51C0D60927802F03F0254
:1039100042EA841203F0070342EA834CBCF5881F95
:103920000BD148E04FF4881CBCF5881F05D142E05C
:1039300044EA831CBCF5881F3DD00A6872451ABF53
:10394000531C0B6000222AB392F90020D3B2B2F1CB
:10395000FF3F2DDC0D682A4612F8014B0A6003F088
:103960001F0E04F03F04E02B1DD3AA1C0A606A78E6
:1039700002F03F0242EA8414F02B17D3EA1C0A60DB
:10398000A97801F03F0141EA84110EF0070241EAF3
:1039900082430DE04FF488130AE044EA033CBCF58F
:1039A000881FCAD107E044EA8E1301E044EA0E33CF
:1039B000B3F5881F03D14FF488110160B0BD002119
:1039C0000172C0E900C3B0BDF0B503AF2DE9000F2F
:1039D0008DB08A46002409944FF488110491CDE9F2
:1039E0000001D0E9000107900844089001A800F107
:1039F00018090AAD4DF2FF7B4FF0000804E04FF4C8
:103A00008816B6F5881F3AD128464946FFF715FFB4
:103A10000A98B0F5881F32D0DDE90A610C9A03924A
:103A2000CDE90161D107EAD1029B9E42E7D80DD2D0
:103A30004146721C5E4508BF4FF460424C1C56451F
:103A40001AD09A4221461646F3D301E0019A414624
:103A5000AC4601258DF80C5001929E4207D1564587
:103A60004FF4881218BF16464C1CA04602E04FF4D3
:103A7000881688466546C4E70192A046C1E70994C6
:103A80000022B0F5881F13D14FF4881001900792DF
:103A9000049CB4F5881F07D09DF8181011B9059B38
:103AA0009C420ED9012616B10490012200E00022AA
:103AB00000988068002A08BF08460DB0BDE8000FD6
:103AC000F0BD099E0FD24DF2FF7C3146621C644569
:103AD00008BF4FF460424E1C544514D09A4214461D
:103AE0003146F3D300E0049A0996049201268DF83A
:103AF00018609C42D7D109994A1C0992B4EB0A0676
:103B000018BF0126CFE7099604920026CBE7F0B54F
:103B100003AF4DF8048D0D4604468E691EB1D5F8ED
:103B20000880B04506D2201D00F0EBFA25605DF854
:103B3000048BF0BDD5E90401CB6811469847E969CB
:103B4000B8FBF6F2B0FBF2F301FB03FC03FB12003F
:103B50007043C4E90050C4E902C621615DF8048BDA
:103B6000F0BDB0B502AF9C460C4605460B6810464A
:103B70006146002200F069FABA6863680FC5B0BDFB
:103B8000F0B503AF2DE9000FADB00A92CDE90E30CC
:103B9000D1E90036D1E902020C9672400D935840EB
:103BA000104346F23060C0F6000018BF084690E8A7
:103BB0002C08284659469246994600F049FA4FF09B
:103BC000FF38B1F1FF3F4FF0FF36C8BF0126B0F11B
:103BD000FF3F4FF0FF34C8BF012400F02CFA8142B0
:103BE00006DA09900B910020CDE90304079006E066
:103BF00007940022CDE90362002609910B900896F4
:103C000006952846CDF814B05946554652464C46BE
:103C10004B4600F01DFA0A4643425046494600F022
:103C200011FA52464B4600F013FAB1F1FF3F4FF044
:103C3000FF3BC8BF4FF0010BB0F1FF3FC8BF4FF0D3
:103C4000010800F0F8F98246C1468846814206DA4A
:103C5000CDF80890002001904FF0000907E0504691
:103C60000021CDE901B14FF0000BC2468046DDE9ED
:103C700005102A46234600F0EBF9404301FB010002
:103C80000A994900494301FB00F4049D2846039E1C
:103C9000314600F006FA1F94019A1892029A179280
:103CA000089A1392079A1292CDE910560E9EF2B21C
:103CB000531E18BF01238DF8A2300024CDE92644FD
:103CC0000C9D25950D9B2493CDE92244CDE920350B
:103CD000CDF874A04FEA4A031C934FEA48031B93A4
:103CE000099C16940B9D6B001493CDF868B081EA83
:103CF0000B01CDF8649080EA09000843B0FA80F027
:103D000040098DF8A1006000159000EB45004010BF
:103D10001E908DF8A060501EB0FA80F0420929A8CC
:103D200010AC214600F009F80F982146642200F0FB
:103D300020FE2DB0BDE8000FF0BDF0B503AF2DE9BA
:103D4000000F8FB00090486A0B690A93D1E90656BC
:103D50000C6A09900C942044B0FA80F08B6A0893A6
:103D6000F31AB3FA83F35C090D96002E08BF4409D9
:103D700007944C23002A18BF5C2391F861000E922F
:103D80005040D1E9108E8A6C0B92CA6A06920A6B77
:103D9000059202956A4201924A6B04925242039242
:103DA000C60708E0CA580A9C1444CC50029A9442B0
:103DB000D646A84678DC0E9898B1D1E914BC8A6D35
:103DC000039CA2422ADD069C121B0C9CACEB040453
:103DD0000D9DABEB0505C1E914548A654FF0000950
:103DE00033E004980B9A824235DD0598121A089840
:103DF00000EB0E0A099800EB0805C1E9105A0B9276
:103E00008A64079800280D9818BFA5EB00080C9845
:103E100018BFAAEB000E4FF001092AE0059C2244CE
:103E2000089CACEB0404099DABEB0505C1E91454F7
:103E30008A65079A002A0D9A08BF02EB050B0C9AB7
:103E400008BF02EB040C4FF00109F2464546B9F1F8
:103E5000000F13D126E0069802440C9800EB0E0ADE
:103E60000D9800EB0805C1E9105A0B928A644FF0D7
:103E70000009F446C346B9F1000F13D0002E91D0CB
:103E8000CC580A9AA21ACA5018463346019EB2422A
:103E90001E460346D646A8468DDC18464B691A4492
:103EA0000A5004E0CC5802E04A69A41ACC500099A8
:103EB00081E8001ACC600FB0BDE8000FF0BDF0B58E
:103EC00003AF2DE9000F81B090460D460446D1E9BD
:103ED000009AD1E902014A46534600F0B9F800F0D1
:103EE000AAF883460E4604F11400294642460023F0
:103EF000FFF746FEB345C8BF5E46701CC4E9009A92
:103F00000021C4E90210216101B0BDE8000FF0BD3D
:103F1000F0B503AF2DE9000F85B00D468146086965
:103F2000002840D105F1140A0DF10408D5E9130366
:103F30004043984208DD0223022B28D0764664468F
:103F40009346022B26D151E095F876204046514603
:103F5000FFF7F3FE0DF1040E9EE80850049A002BC3
:103F60004FF0400008BF44202858E96C0844E8643A
:103F7000002B18BF012395F87400002802BF95F8A4
:103F8000760080F0010085F87600022BD6D102235E
:103F9000022B2BD085E85008E868002B18BF0138A9
:103FA00028610028C2D001382861A868E96A8842DF
:103FB0000ADDD5E90012D5E9073619443244AB6A67
:103FC000C01AC5E90012A86095E80700D5E90536D2
:103FD000C9E90101314418446B6A1A4407C501203C
:103FE000C9F8000005B0BDE8000FF0BD0020F7E7FC
:103FF000B0B502AF0C460546D1E9000100F022F849
:10400000D4E902230FC5B0BD4172002101726421C1
:104010000122C0E90021704780B56F468C46994265
:1040200004D11146624600F05EFB80BDBA6860466E
:104030001946FFF775FB002848BF4042002948BFDA
:10404000494270471044194470471044194470475E
:10405000801AC91A704780B56F4682B1B0F1004F1F
:1040600002F1010308BF002B0FD0B1F1004F08BFD0
:10407000002B10D090FBF2F091FBF2F180BD46F6E0
:104080005C10C0F60000FFF782FA46F65C10C0F63E
:104090000000FFF7BDFB46F66C10C0F60000FFF70E
:1040A000B7FB404249427047C0B2002818BF012008
:1040B0007047CB68002B1CBF8A68002A06D10021FC
:1040C000C0E90011C0E902110161704780B56F4677
:1040D000D1E900EC6FF000418B4228BF0B4613EB97
:1040E0000C0368BF0B468A4228BF0A4612EB0E0239
:1040F00068BF0A46C0E900E2C0E902C3C0F810E0A8
:1041000080BD0021C0E90011C0E9021170470346DB
:10411000D0F800C000208C45C8BF7047D0B502AFB2
:10412000D3F804E0964506DC9C680020002C1CBFF8
:10413000DB68002B02D1BDE8D04070470EEB0300D6
:104140000138002390424FF00000A8BF01200CEB83
:104150000402013A8A42A8BF01231840BDE8D040BA
:10416000704799421CBF0020704780B56F468C464F
:104170001146624600F04FFCB0FA80F0400980BD65
:10418000FEE741B2B1F1FF3FC2BFC0B2C008704705
:1041900080B56F4646F67C10C0F6000046F6E41285
:1041A000C0F600020D21FFF7DFF9704740F28010E2
:1041B000C4F242200121C0F8801101600021016099
:1041C000012070470420C4F20100704740F600004F
:1041D000C4F20100704741F20000C4F201007047D0
:1041E00040F60040C4F201007047F0B503AF2DE97E
:1041F000000F87B00C7A012C0DD1D1E9002340F6D5
:104200000016C0F23D06002A18BF1E464A7A023246
:1042100006FB02F307E00A68002A12BF4B6841F26E
:104220000023C0F27A03CA7A05928D7B1922069583
:104230000B2D88BF1A224E7B04960E7B03960E68C8
:10424000002546F6004CC0F2DC2C4AF20129C0F2EF
:104250004A49002C029418BF002E0BD0A3EB0C058A
:10426000B5FA85F56D09A3EB09040134B4FA84F4B9
:104270006409254301954B4525D2069D2A4402F049
:104280001F02049D0535022423FA02F205F0070AF5
:10429000059D04EB450522FA0AFCBCFBF5FB49F63B
:1042A0008074C0F2D504A3450DD8039D6C1D04F0A5
:1042B000070822FA08FE45F20014C0F22524A6459C
:1042C00098BFCC450AD346F6A420C0F6000046F6B7
:1042D0003032C0F600028A21FFF746F946F6004464
:1042E000C0F2DC2401343225A34238BF312543F229
:1042F0000164C0F26E14A34238BF302542F20004BC
:10430000C4F20204256041F20009C4F202094EB170
:10431000D9F8004044F48034C9F80040D9F800408E
:10432000A403FBD5029CBCB14C7A04F00F04D9F86D
:10433000045025F4741545EA844444EA0644C9F857
:104340000440D9F8004044F08074C9F80040D9F81E
:104350000040A401FBD50226019C8475C0E9002E13
:10436000C0E902C3C0F810B0012202FA0AF3437593
:1043700002FA08F20275887A46EA8050D9F80410E9
:104380000C22CFF6BF721140059A41EA8231049A9D
:1043900041EAC221039A41EA0221069A41EA021146
:1043A0000844C9F8040007B0BDE8000FF0BD017D66
:1043B000013918BF0121406888407047F0B503AF4C
:1043C0002DE90007D1E9009C0A6AB9F1010F06D175
:1043D000002A624608D14FF0000E634627E05AB12A
:1043E00040F60012C0F23D02002A00F0D0804B6A75
:1043F000B3FBF2F6012E0AD141F20023C0F27A0398
:10440000B9F1000F18BF63464FF0000E0FE0102502
:104410009A4288BF0125112E28BF2E469A4288BF96
:104420002E4606FB02F3A6F102084FF0010E8A6841
:10443000012A07D1CA68002A00F0AF80B3FBF2F26C
:10444000022A21D24FF0070A1922524402F01F0219
:1044500023FA02F445F20015C0F22525AC4238BF1C
:104460002546D1E90462002E08BF2A46002A00F042
:104470008880A518013DB5FBF2F2022A01D203267D
:1044800016E006D1042613E0022A07D14FF0080AED
:10449000DAE7D51E032D06D2052609E0062A4ED2FC
:1044A0004FF0090AD0E7063A0726062A38BF062643
:1044B0008A6932B1CA69002A75D0B4FBF2F5022DBF
:1044C0002DD203228D6A012D0DD1C96A002970D029
:1044D00002F11D0505F01F05EC40B4FBF1F4032CBF
:1044E00020D2002100E0032180F80EA080F809808E
:1044F00080F808E0C0E9009C42730673C1724AF27A
:104500000021C0F24A41591A18BF01210EEA0902DE
:1045100082F0010211438172BDE80007F0BD05D1B0
:104520000422CFE7052C05D20121DDE7062D0BD2B1
:104530000522C7E70321082C38BF0221D4E70C2A43
:1045400007D24FF00A0A7FE707220C2D38BF062258
:10455000B8E7282A02D24FF00B0A75E7602A02D288
:104560004FF00C0A0BE0C02A02D24FF00D0A06E011
:104570004FF00F0AB2F5C07F38BF4FF00E0A1A2273
:1045800063E746F67420C0F60000FFF700F846F631
:104590005420C0F60000FEF7FAFF46F66420C0F68D
:1045A0000000FEF7F4FF46F68420C0F60000FEF798
:1045B000EEFF46F69420C0F60000FEF7E8FF7047D5
:1045C00000684DF68362C4F21B32A0FB0202900C1D
:1045D0004843002808BF704780B56F464EF210016F
:1045E000CEF200016FF07F4C4FF0000E60456FF08F
:1045F0007F4238BF02464A60C1F808E00B6843F0CA
:1046000001030B600B68DB03FCD50B6823F001038F
:104610000B60801AEAD1BDE88040704700684DF613
:104620008362C4F21B32A0FB0202900C89B24843A1
:104630004FF47A714843002808BF704780B56F4631
:104640004EF21001CEF200016FF07F4C4FF0000EE1
:1046500060456FF07F4238BF02464A60C1F808E00B
:104660000B6843F001030B600B68DB03FCD50B68A0
:1046700023F001030B60801AEAD1BDE88040704747
:104680004EF21001CEF200010A6822F004020A6024
:104690000068C008704740F28810C4F2422001212F
:1046A000C0F88011016000210160704740F28C1059
:1046B000C4F242200121C0F8801101600021016094
:1046C000704740F29010C4F242200121C0F88011DE
:1046D000016000210160704772B6704762B6704792
:1046E000EFF31080704700F000B8F0B503AF2DE98C
:1046F0000007102A1ED3434203F0030800EB08030F
:10470000834233D9A8F1010CB8F1000F06460D46DB
:104710001AD00D46064615F801EBB8F1010F06F860
:1047200001EB11D04E78B8F1020F467008D18D1C04
:10473000861C09E084460CEB02039C453ED36AE0EC
:104740008E78CD1C8670C61CBCF1030F0ED3043DC1
:10475000043E15F8044F06F8044F6C787470AC787A
:10476000B470EC78F470341D9C42F2D1A2EB080EC8
:1047700041442EF0030203EB020C8C0758D1634531
:1047800015D20C46256843F8045B63450FD2656873
:1047900043F8045B63453EBFA56843F8045B63458B
:1047A00005D2E568103443F8045B6345EAD311444D
:1047B0000EF003020CEB02039C452CD212F0030412
:1047C000A2F1010E13D00E46654616F8012B012CFE
:1047D00005F8012B0DD04A78022C8CF801201DD150
:1047E0008E1C0CF10205BEF1030F05D213E06546E5
:1047F0000E46BEF1030F0ED3311F2A1F11F8046FAE
:1048000002F8046F4E7856708E789670CE78D67017
:10481000161D9E42F2D1BDE80007F0BDCE1C0CF182
:1048200003058A788CF80220BEF1030FE4D2F2E788
:104830006345BCD2182404EAC10821F00304CE0069
:1048400004F108057642246806F0180924FA08FAEB
:1048500055F8044C04FA09F646EA0A0643F8046BD4
:104860006345A4D224FA08FA2C6804FA09F646EA49
:104870000A0643F8046B63453FBF24FA08FA6C68E4
:1048800004FA09F646EA0A063CBF43F8046B63459E
:104890008DD224FA08FAAC68103504FA09F646EA13
:1048A0000A0643F8046B6345D0D380E780B56F46B2
:1048B000042914D3A1F1040C012202EB9C0212F092
:1048C00003030ED04FF0000E024642F804EB012B1A
:1048D0000BD110466146BCF10C0F19D222E0024602
:1048E00020E0BCF10C0F13D21CE0022BC0F804E056
:1048F00006D1083908300246BCF10C0F08D211E08D
:1049000000220C3982600C300246BCF10C0F09D336
:10491000002302461039C2E90033C2E902331032E3
:104920000329F7D85018824222D211F0030CA1F1CA
:1049300001010ED04FF0000E134603F801EBBCF15D
:10494000010F0BD0BCF1020F82F801E003D1931CE0
:1049500004E0134602E000239370D31C032938BF00
:1049600080BD191F002241F8042F0B1D8342FAD18C
:1049700080BD042A18D3B0B502AFA2F1040E012302
:1049800003EB9E0313F0030414D00B46844653F844
:10499000045B012C4CF8045B10D16046194672464A
:1049A000BEF10C0F1CD230E00B468446604619461F
:1049B000FFF79BBEBEF10C0F12D226E04B68022C13
:1049C000436003D1083A0831083004E08B680C3AA0
:1049D00083600C310C3084460B46BEF10C0F14D3AF
:1049E00084460B461868103ACCF80000032A586831
:1049F000CCF804009868CCF80800D86803F11003DC
:104A0000CCF80C000CF1100CECD8BDE8B0406046BE
:104A10001946FFF76ABE002A04BF00207047F0B5B0
:104A200003AF2DE9000BA2F1010EC2F1000C00232F
:104A3000CC5CC55CA54224D19E451ED001EB030889
:104A400000EB030998F8014099F80150A54218D1EC
:104A50000CEB0306B41C10D098F8024099F80250F1
:104A6000A5420ED1F41C08D098F8034099F80350E1
:104A7000A54206D104339A42DAD10020BDE8000BEA
:0C4A8000F0BD281BBDE8000BF0BDFEE7F8
:104A8C00433A5C55736572735C5A68616E675C2E51
:104A9C00636172676F5C72656769737472795C735A
:104AAC0072635C727370726F78792E636E2D6533DE
:104ABC0064653033396232353534633833375C648E
:104ACC006973706C61792D696E746572666163656A
:104ADC002D6932632D302E342E305C7372635C6C16
:104AEC0069622E72730000008C4A00086500000099
:104AFC002C0000002B0000008C4A00086500000010
:104B0C004900000031000000433A5C557365727334
:104B1C005C5A68616E675C2E636172676F5C72656C
:104B2C006769737472795C7372635C727370726FA1
:104B3C0078792E636E2D6533646530333962323586
:104B4C003534633833375C73746D3332663178784F
:104B5C002D68616C2D302E31302E305C7372635C9D
:104B6C006932635C626C6F636B696E672E72734340
:104B7C003A5C55736572735C5A68616E675C2E6340
:104B8C006172676F5C72656769737472795C73725A
:104B9C00635C727370726F78792E636E2D653364FB
:104BAC00653033396232353534633833375C66758A
:104BBC006769742D302E332E375C7372635C7261AF
:104BCC0074652E72730000007B4B000856000000C9
:104BDC004B02000001000000433A5C557365727390
:104BEC005C5A68616E675C2E636172676F5C72659C
:104BFC006769737472795C7372635C727370726FD1
:104C0C0078792E636E2D65336465303339623235B5
:104C1C003534633833375C73746D3332663178787E
:104C2C002D68616C2D302E31302E305C7372635CCC
:104C3C006932632E7273617373657274696F6E205F
:104C4C006661696C65643A206D6F64652E67657486
:104C5C005F6672657175656E63792829203C3D200D
:104C6C006B487A2834303029E44B00085E00000091
:104C7C00AD00000009000000144B000867000000A4
:104C8C00F70000001B00000000207F00944C00087F
:104C9C00030000001F000000000000000C000000DA
:104CAC0004000000C9390008433A5C5573657273FF
:104CBC005C5A68616E675C2E7275737475705C7487
:104CCC006F6F6C636861696E735C737461626C6541
:104CDC002D7838365F36342D70632D77696E646F9E
:104CEC0077732D6D7376635C6C69622F7275737458
:104CFC006C69622F7372632F727573745C6C69626A
:104D0C00726172792F636F72652F7372632F737474
:104D1C00722F7061747465726E2E7273433A5C55A7
:104D2C00736572735C5A68616E675C2E636172673F
:104D3C006F5C72656769737472795C7372635C72B1
:104D4C007370726F78792E636E2D653364653033B2
:104D5C00396232353534633833375C7373643133CD
:104D6C0030362D302E382E345C7372635C6C696275
:104D7C002E727300284D0008570000009D010000A2
:104D8C0018000000E3000000B44C000874000000A0
:104D9C00CD01000037000000433A5C557365727317
:104DAC005C5A68616E675C2E7275737475705C7496
:104DBC006F6F6C636861696E735C737461626C6550
:104DCC002D7838365F36342D70632D77696E646FAD
:104DDC0077732D6D7376635C6C69622F7275737467
:104DEC006C69622F7372632F727573745C6C696279
:104DFC00726172792F636F72652F7372632F736C8C
:104E0C006963652F697465722E727300A44D000876
:104E1C00730000000D0600001E000000563D20200F
:104E2C0056493D20202041787830313035313031B1
:104E3C00353F3F787878302E32302E34302E363065
:104E4C002E38312E30312E32312E34312E36312E49
:104E5C0038322E303F3F3F7372635C6D61696E2E4A
:104E6C0072730000634E00080B0000002B00000062
:104E7C0027000000634E00080B0000002C0000000F
:104E8C002C000000000000000000000000000000EA
:104E9C000000000000000000000000000000000006
:104EAC0000000000000000000000000000000000F6
:104EBC0000000000000000000000000000000000E6
:104ECC0000030330000C0001C030030C0000000094
:104EDC000000000000030330363F0E63603006060E
:104EEC00000000000000000600030330366D9B63D9
:104EFC0060300C03000000000000000600030120DD
:104F0C00366C1BC360300C03033030000000000C07
:104F1C0000030000FF6C0EC3C0201801833030006A
:104F2C000000000C000300006C6C01818000180173
:104F3C0081E0300000000018000300006C3F01838A
:104F4C008000180187F9FE001FE000180003000024
:104F5C006C0D8306C000180181E0300000000030A9
:104F6C0000030001FE0D83066C0018018330300035
:104F7C000000003000030000D80D86E638000C035A
:104F8C00033030000000006000000000D86D87B6D0
:104F9C0030000C03000000000000E0600003000083
:104FAC00D83F0DB7780006060000000E0000E0C0E8
:104FBC0000030000000C0CE3CC00030C0000000EFE
:104FCC000000E0C000000000000000000000000035
:104FDC000000001C000000000000000000000000A9
:104FEC0000000000000000000000000000000000B5
:104FFC0000000000000000000000000000000000A5
:10500C000000000000000000000000000000000094
:10501C000000000000000000000000000000000084
:10502C000000000000000000000000000000000074
:10503C000000000000000000000000000000000064
:10504C000000000000000000000000000000000054
:10505C000C0301E078011FE1E1FE1E078000000156
:10506C00000200781E070330CC0318033006330C03
:10507C00C0000003000300CC330F06198607180686
:10508C00100661986000000600018186331B06192A
:10509C00860F1806000C61986000000C0000C18699
:1050AC0061830018061B1806000C6198600000183C
:1050BC001FE06186618300180C331B86E0183318DF
:1050CC0060E038300000300C6183003038631CC75E
:1050DC0030181E0CE0E0386000001818618300E006
:1050EC000C6300661830330760000030000030306D
:1050FC0061830180067F8066183061806000001833
:10510C000000603033030301860300661860618081
:10511C006000000C1FE0C0303303060186031866E4
:10512C001860618860000006000180001E03060004
:10513C00CC030CC330C0330CC0E038030003003088
:10514C000C1FE7F878030781E0C01E0780E03801E8
:10515C000002003000000000000000000000000011
:10516C0000007000000000000000000000000000C3
:10517C000000000000000000000000000000000023
:10518C000000000000000000000000000000000013
:10519C000000000000000000000000000000000003
:1051AC0000000000000000000000000000000000F3
:1051BC0000000000000000000000000000000000E3
:1051CC0000000000000000000000000000000000D3
:1051DC0000000000000000000000000000000000C3
:1051EC001E0307C0787E1FE7F878619FE0FD86609C
:1051FC001866187833078660CC63180600CC618378
:10520C0000318660186718CC618CC63186619806AF
:10521C000186618300318C601CE71986678CC6316E
:10522C00806198060180618300318C601CE799864F
:10523C006F986631806198060180618300319860B7
:10524C001FE799866D98666180619806018061837D
:10525C00003198601B66D9866D9867E180619F87E5
:10526C00E19E7F830031F0601B66D9866D9FE6312D
:10527C008061980601866183003198601B6679868F
:10528C006F186619806198060186618300319860F9
:10529C001B6679866618661980619806018661839B
:1052AC0006318C6018663986601866198661980616
:1052BC000186618306318C601866398631986630B8
:1052CC00CC63180600CE618303618660186618CC27
:1052DC001F1867E0787E1FE6007A619FE1C1867F28
:1052EC009866187800000000000000000000000024
:1052FC0000000000000000000000000000000000A2
:10530C000000000000000000000000000000000091
:10531C000000000000000000000000000000000081
:10532C000000000000000000000000000000000071
:10533C000000000000000000000000000000000061
:10534C000000000000000000000000000000000051
:10535C000000000000000000000000000000000041
:10536C000000000000000000000000000000000031
:10537C007E0787E0787F98661986619867F8FC004D
:10538C000FC0C000630CC630CC0C1866198661982F
:10539C006018C03000C1E00061986619860C186670
:1053AC001986330CC018C03000C3300061986619E0
:1053BC00800C18661986330CC030C01800C6180053
:1053CC0061986619800C186331861E078060C018BE
:1053DC0000C0000061986618C00C186331B61E0737
:1053EC008060C00C00C0000063186630780C186335
:1053FC0031B60C0300C0C00C00C000007E1867E082
:10540C000C0C1861E1B61E030180C00600C0000040
:10541C0060186660060C1861E1B61E030180C006B8
:10542C0000C00000601B6630060C1861E1CE33032F
:10543C000300C00300C000006019E631860C186040
:10544C00C1CE33030600C00300C00000600CC618B8
:10545C00CC0C0CC0C18661830600C00180C000006A
:10546C006007C618780C0780C186618307F8FC01B9
:10547C008FC0000000006000000000000000000071
:10548C0000000000000001FF000000000000000010
:10549C000000000000000000000000000000000000
:1054AC0000000000000000000000000000000000F0
:1054BC0000000000000000000000000000000000E0
:1054CC0000000000000000000000000000000000D0
:1054DC0000000000000000000000000000000000C0
:1054EC0000000000000000000000000000000000B0
:1054FC0000000000000000000000000000000000A0
:10550C001800060000018000F00060000001803CE3
:10551C00000000000C0006000001800198006000F3
:10552C000001800C00000000060006000001800154
:10553C00980060030019800C0000000000000600B9
:10554C0000018001800060030019800C0000000045
:10555C000000060000018001800060000001800C4A
:10556C00000000000007C6E07C1D8787E0FA6E0F84
:10557C0000798C0C16C6E078000C6730C6338CC1F1
:10558C00818E73030019980C1FE730CC000066194C
:10559C0080619861818C61830019B00C1B6619863F
:1055AC00000FE61980619FE1818C61830019E00C8A
:1055BC001B6619860018661980619801818C6183BD
:1055CC000019F00C1B661986001866198061980189
:1055DC0080F861830019980C1B66198600186730D7
:1055EC00C6338C618180618300198C0C1B6618CCCE
:1055FC00000FA6E07C1D87C180FC619FE019867FAF
:10560C009B66187800000000000000000186000076
:10561C000318000000000000000000000000000063
:10562C0001860000031800000000000000000000CC
:10563C0000000000018600000318000000000000BC
:10564C00000000000000000000FC000001F0000061
:10565C00000000000000000000000000000000003E
:10566C00000000000000000000000000000000002E
:10567C00000000000000000000000000000000001E
:10568C00000000000000000000000000000000000E
:10569C0000000000000000000000000000001E0CD4
:1056AC001E039878000000000000000000000000BD
:1056BC000000300C0306D8CC0000000000180000DD
:1056CC00000000000000300C030671860000000092
:1056DC0000180000000000000000300C03000186E0
:1056EC000000000000180000000000000000300C5A
:1056FC00030001866E0766F0FC7E186619866198B9
:10570C0063F8300C0300000C730CE39986181866D0
:10571C00198633186019E00C01E0001861986301D8
:10572C008018186331861E186030300C030000306E
:10573C0061986300FC18186331B60C186060300C6B
:10574C00030000306198630006181861E1B60C186C
:10575C0060C0300C030000306198630006181861BB
:10576C00E1B61E186180300C03000000730CE301DD
:10577C0086198CE0C1FE330CE300300C03000030C2
:10578C006E076300FC0F0760C0CC618763F81E0CCA
:10579C001E000030600060000000000000000000EF
:1057AC0060000000000000006000600000000000CD
:1057BC0000000018600000000000000060006000A5
:1057CC00000000000000000CC00000000000000001
:1057DC006000600000000000000000078000000076
:1057EC0000000000000000000000000000000000AD
:1057FC00000000000000000000000000000000009D
:10580C00000000000000000000000000000000008C
:10581C0000000000000000800000000000000000FC
:10582C00001DC00000000000C0781F0007E0000051
:10583C000000003E001DC0C03C000000C0CC330086
:10584C000630000000000078000CC0C066000000AC
:10585C00C18C6387861812000001E0D8001981E022
:10586C0066808000C0C0638CC6183600000330D838
:10587C000000033060DD8000C0F0659866186C0095
:10588C000006199800000610607F000001986597CB
:10589C00A618D87F8005E99800000601F86300007F
:1058AC0000CC6594A631B07F8FC529FE00000600A0
:1058BC00606300000066699427E360018005E99845
:1058CC000000061060630000C03C6994A661B00142
:1058DC008005499800000330607F0000C00C699778
:1058EC00A630D80000056998000001E1F0DD8000C9
:1058FC00C0C6719866306C0000061998000000C193
:10590C005B809DC0C0CC330CC618360000033198A8
:10591C00000000C1CE001DC0C0783E0786181200E2
:10592C000001E19E0000000000000CC000004000DF
:10593C0007000000000000000000000000001980BB
:10594C0000000000018000000000000000000000CA
:10595C0000000000000000000180000000000000BA
:10596C000000000000000000000000000700000024
:10597C00000000000000000000000000000000001B
:10598C00000000000000000000000000000000000B
:10599C0000000000000000000000000000000000FB
:1059AC0000000000000000000000000000000000EB
:1059BC000C0001C070198003F800000600000020E4
:1059CC00080700001E000360D8330007F800000E23
:1059DC00000000601800800033000060183B800756
:1059EC00D80000060001202088230800330000C0E6
:1059FC00303B8007D80000060001B0210840900021
:105A0C001E03018018000007D80000860000D87221
:105A1C001C8720000C030300D8000003D8381F0695
:105A2C0006F06C04010040EC001FE3E0700018C0AD
:105A3C00D838330F0398360902C0913600030000A2
:105A4C00000018C0D838658003001B1305213036C0
:105A5C0000030000000018C0D80065800300362544
:105A6C000822503C00000000000018C0D8006980DB
:105A7C0003006C4F1044F8F0001FE000000018C049
:105A8C00D80069800300D801008011B0000000002C
:105A9C0000001DC0D80033000301B00101E011B2B9
:105AAC000000000000001F40D8003E000301200051
:105ABC00000000DC000000000000180000004000A6
:105ACC00038000000000000000000000000018002F
