:020000040800F2
:10000000005000203101000821230008192B0008AE
:1000100021230008212300082123000800000000FC
:100020000000000000000000000000002123000884
:1000300021230008000000002123000821230008DC
:100040002123000821230008212300082123000880
:100050002123000821230008212300082123000870
:100060002123000821230008212300082123000860
:100070002123000821230008212300082123000850
:100080002123000821230008212300082123000840
:100090002123000821230008212300082123000830
:1000A0002123000821230008212300082123000820
:1000B0002123000821230008212300082123000810
:1000C0002123000821230008212300082123000800
:1000D00021230008212300082123000821230008F0
:1000E000212300082123000800000000212300082C
:1000F00021230008212300082123000821230008D0
:1001000021230008212300082123000821230008BF
:1001100021230008212300082123000821230008AF
:10012000212300082123000821230008212300089F
:1001300002F0F7F8084809490022814201D004C0C2
:10014000FBE707480749084A814202D008CA08C0AD
:10015000FAE701F01FF800DE000000200400002094
:10016000000000200000002080340008F0B503AF3C
:100170002DE9000F81B090468B46064602F05CF9EF
:100180004021016102F058F98021016140F21045DF
:10019000C4F200052868C00709D12868C00704BF59
:1001A00028685FEAC07002D12868C007F2D04FF615
:1001B000FE70286002F040F94FF4000101612868E8
:1001C000C00709D12868C00704BF28685FEAC0706B
:1001D00002D12868C007F2D04FF6FE70286002F006
:1001E0002BF94FF4800101612868C00709D1286804
:1001F000C00704BF28685FEAC07002D12868C00742
:10020000F2D04FF6FE702860700000F026FAC0B2FF
:10021000002840F0868002F00FF98021016102F091
:100220000BF9402101612868C00709D12868C0077F
:1002300004BF28685FEAC07002D12868C007F2D006
:100240004FF6FE70286002F0F7F8866802F0F4F8C6
:100250004FF48001016102F0EFF84FF400010161F9
:100260002868C00709D12868C00704BF28685FEA6A
:10027000C07002D12868C007F2D04FF6FE79C5F8E9
:10028000009016F0800F02D0C6F3C01049E00BEBCF
:1002900008064FF4000804E0C5F800905FEA0A6021
:1002A00043D4B3455C4618BF013438D09BF80000F6
:1002B00000F0D3F9C0B298BBA34602F0BDF880218C
:1002C000016102F0B9F8402101612868C00709D135
:1002D0002868C00704BF28685FEAC07002D1286898
:1002E000C007F2D0C5F8009002F0A6F8D0F808A038
:1002F00002F0A2F84FF48001016102F09DF8C0F80D
:1003000010802868C007C7D12868C00704BF2868C4
:100310005FEAC070C0D12868C007F2D0BCE70020F7
:1003200030B101B0BDE8000FF0BD01200028F8D1C8
:1003300001B0BDE8000FBDE8F04000F05EB9F0B5D7
:1003400003AF2DE9000F83B0CDE9003202910646DC
:1003500090F8188045F21445C4F2000541F2040BF0
:10036000CEF2000BB8F1000F52D0D6F80C904FF03F
:10037000000A12E0062C08BF0524052C45D048F2DF
:10038000010045F8140C45F814AC304600F0BCF9F7
:10039000A8F101085FEA086037D055F8140C40F462
:1003A000807045F8140CDBF8000008E000242C6095
:1003B000052CDFD1DBF80010091A494522D2296843
:1003C000CA05F3D48A050BD44A050FD40A0513D401
:1003D000C9074FF0060408BF0524052CEAD0C9E779
:1003E000C5F800A00124052CE4D0C3E7C5F800A09F
:1003F0000224052CDED0BDE7C5F800A00324052C9F
:10040000D8D0B7E70424052CB9D1052C04D0BDE021
:100410000524052C40F0BA80286802984000C0B23C
:1004200045F8040C3069DBF800102B68DA054FF052
:1004300000024FF0000410D49C0509D45C0509D4D7
:100440001C0509D49A074FF005040ED4012205E0DB
:10045000012402E0022400E003242A602AB1DBF830
:100460000020521A8242E0D30424022C00F088803B
:10047000052C40F08B8028686868019B187845F847
:10048000040C0098012849D003EB000C71699A1CF8
:1004900003F101084FF0000E1346DBF8002008E0DE
:1004A00000242C60052C26D1DBF80000801A88423D
:1004B00027D22C68E005F3D4A0050BD460050FD437
:1004C000200513D420064FF0060458BF0524052C40
:1004D000EAD010E0C5F800E00124052CE4D00AE0E1
:1004E000C5F800E00224052CDED004E0C5F800E0E9
:1004F0000324052CD8D0062C08BF0524052C03D0D6
:100500003CE00424052C39D198F8000045F8040C8F
:1005100063451A4618BF01329846BDD17069DBF8B1
:100520000010002208E000242C60052C23D1DBF809
:1005300000305B1A83425CD22B68DC05F3D49C0547
:100540000BD45C050ED41C0511D45B074FF00604D8
:1005500058BF0524052CEAD00DE02A600124052CA3
:10056000E5D008E02A600224052CE0D003E02A60F0
:100570000324052CDBD0062C08BF0524022C05D152
:1005800055F8140C40F4007045F8140C052C2CD1CF
:1005900055F8140C40F4007045F8140C7069DBF841
:1005A000001055F8142C92051FD5DBF80020521AC4
:1005B00082421AD255F8142C920516D5DBF8002089
:1005C000521A824211D255F8142C92050DD5DBF83F
:1005D0000020521A824208D255F8142C920504D5F4
:1005E000DBF80020521A8242DBD303B0BDE8000FD3
:1005F000F0BD0424022CC9D1C2E7D0B502AF01F08E
:100600001BFF4021016140F21044C4F20004206845
:10061000C00709D12068C00704BF20685FEAC07026
:1006200002D12068C007F2D04FF6FE70206001F0C2
:1006300003FF802101612068C00709D12068C0073D
:1006400004BF20685FEAC07002D12068C007F2D002
:100650004FF6FE7020600020D0BDF0B503AF2DE94D
:10066000000F81B0002440F21045C4F200055FFA8B
:1006700080F94FF6FE764FF4800A4FF4000B00E04D
:100680002E602046072CD8BF441C072837DCC0F159
:10069000070000F0070029FA00F0C0074FF08008BB
:1006A00008BF4FF4000801F0C7FEC0F8108001F049
:1006B000C3FE402101612868C00709D12868C0072E
:1006C00004BF28685FEAC07002D12868C007F2D072
:1006D0002E6001F0B1FEC0F810A001F0ADFEC0F830
:1006E00010B02868C007CBD12868C00704BF2868AD
:1006F0005FEAC070C4D12868C007F2D0C0E700200C
:1007000001B0BDE8000FF0BDF0B503AF4DF804BD7A
:10071000014680684DF68362C4F21B32A0FB0223BF
:10072000C3F3854245F20044C4F200046260002233
:1007300022609A0C4D680B78A3B14FF496735A431C
:1007400092B2D20842F2C5035A43012303EB12527C
:1007500002F03F0222624E7801F05DFE9EB14DB381
:10076000192112E0511C01F03F01216201F053FEFA
:1007700069001FD0B0FBF1F080B2042898BF0420BC
:100780006FF31F300EE0ADB103216943B0FBF1F010
:1007900080B2012898BF01206FF31F3040EA8630F5
:1007A00000F50040E061206840F0010020605DF845
:1007B00004BBF0BD42F6FC30C0F6000001F022FDA3
:1007C00080B56F4682B000220192802903D28DF855
:1007D0000410012231E002220B4662F39F13B1F5AF
:1007E000006F07D28DF80530C02343EA91118DF8D0
:1007F000041022E0B1F5803F0DD28DF80630E023E1
:1008000043EA11338DF80430890962F39F118DF8A2
:100810000510032211E08DF80730F02343EA9143DD
:100820008DF804308B0962F39F138DF80630090BA5
:1008300062F39F118DF80510042201A900F060F801
:10084000002002B080BD0A4642F6AC41C0F600016D
:1008500001F025BCD0B502AF82B004460172C8B227
:100860000FF20401DFE800F00215050740F2131053
:1008700010E0132001E040F2131027F80D0CA7F14F
:100880000D00214600F01AFBC0B2072816D1152032
:100890000CE0132027F80D0CA7F10D00214600F005
:1008A0000DFBC0B2072809D140F2151027F80D0C36
:1008B000A7F10D00214600F001FBC0B202B0D0BD8F
:1008C000D0B502AF84B00446022007F8100C40F205
:1008D000191027F8120CA7F11200214600F0EEFAC9
:1008E000C0B2072809D145F6037027F80D0CA7F10F
:1008F0000D00214600F0E2FAC0B204B0D0BDD4D45D
:10090000F0B503AF2DE9000F8BB00C4681468D1872
:1009100006A800F1010B09F10B0003904FF000084D
:10092000CDE901590EE00D20ADF8180006A84946A2
:1009300000F0C4FAC0B2072804BF99F80A000128E1
:1009400000F0A281AC42214618BF01314FF488105B
:100950003CB1AC4205D094F90020D0B2B2F1FF3FD7
:1009600039DD0C46B0F5881F00F09C810A2825D09F
:100970000D28D8D099F8082000EB4001DFE802F0FC
:10098000024B024B8DF817808DF8108042F6C4425E
:10099000C0F6000202EB410121385F284FF0000051
:1009A00038BFA1F1C600002808BF02F50D7081888C
:1009B000ADF815100068CDF8110004E199F80A00AF
:1009C0000028BFD0039801F0FAFC024648460021F7
:1009D00000F06EF9B6E700F01F020C4614F8013B78
:1009E00003F03F03E028C0F048814E7806F03F0650
:1009F00046EA8313F028C0F04E81887800F03F006B
:100A000040EA831002F0070240EA8240CC1CB0F5B5
:100A1000881FABD146E142F6C442C0F6000202EBA9
:100A2000410121385F284FF0000538BFA1F1C6050C
:100A3000002D08BF02F50D756A79402000EA5200CA
:100A40002B79202101EA93014FF0200801EB000CE3
:100A500095F800E06978AE78ED78102000EAD500CE
:100A60008444082000EA16108444042000EA51104F
:100A700084444FF0020A0AEA9E10844408EA5308AC
:100A800002F040008044102000EA950080440820D5
:100A900000EAD6008044042000EA111080440AEAEB
:100AA0005E104044000440EA0C6C02F0200803F0A1
:100AB000200040EA4808102000EA55008044082041
:100AC00000EA96008044042000EAD10080440AEA4B
:100AD0001E1040444CEA002C02F0100805F01000F3
:100AE00040EA880803F0100048EA4008082000EABD
:100AF00056008044042000EA910080440AEADE00A7
:100B0000404440EA0C0005904FF0200808EAC30C6E
:100B100002F004004CEA001C05F004004CEA800CD2
:100B200001F00400844406F004004CEA400C0AEA98
:100B30005E00844408EA830802F0080048EAC0081E
:100B400006F00800804405F0080048EA4008042048
:100B500000EA510080440AEA9E004044000640EA50
:100B60000C4C202000EA031802F0020048EA40186A
:100B700005F0020048EAC00806F0020048EA8008D2
:100B80000EF00200804401F0020048EA40004FF0FD
:100B900000084CEA002C402000EA821263F3451260
:100BA00005F0010342EA031206F0010342EAC30220
:100BB00001F0010142EA81010EF0010241EA420125
:100BC0000CEB01000490CDF818808DF82880CDF84A
:100BD0002480CDE9078899F8045099F805008DF82C
:100BE00018004FF0080904A817E00026824626B333
:100BF00042F69430C0F60000009058464146324616
:100C0000434601F08FFB08F10102284606A9FFF7D1
:100C1000ADFAC0B20028504614D1B9F1000FE4D0AB
:100C2000B9F1100F4FF0100838BFC846A9EB0809FA
:100C300000EB080A0646002EDAD1DDE901594FF033
:100C4000000806E0002EDDE901594FF000087FF4AE
:100C500079AE99F80A0001280CD1039801F086FBBF
:100C600099F80B1099F80C20484600F021F8C0B212
:100C7000092867E60720092864E643EA8210B0F5F0
:100C8000881F7FF473AE0DE099F80C2003980021C3
:100C900001F0AEFB56E643EA02308C1CB0F5881F2B
:100CA0007FF464AE00200BB0BDE8000FF0BDD4D4DB
:100CB000F0B503AF4DF804BD82B00446807A002839
:100CC00049D0637BCEB20820B34282BFA37BD6B2A9
:100CD000B34241D9207A15460E46DFE800F00212F1
:100CE00002120D2007F8150CC80007F8140CA7F124
:100CF0001500214600F0E2F8C0B207282CD12946A1
:100D00000EE00D2007F8150CD00007F8140CA7F121
:100D10001500214600F0D2F8C0B207281CD1314698
:100D2000C80001F00FFB112107F8151CC0B207F82D
:100D3000140CA7F11500214600F0C0F831462A46F0
:100D4000C0B2072808D1A07A28B104F10B0001F045
:100D50004FFB092000E0072002B05DF804BBF0BDA6
:100D6000F0B503AF2DE9000F89B001460E20ADF8B4
:100D7000100004A8029100F0A1F8C0B2072840F0CA
:100D800099800020029948727F208DF812000F2070
:100D9000ADF8100004A800F091F8C0B2072840F0A8
:100DA00089800298407A022815D0002001F0CAFA02
:100DB000C4B23F2001F0C6FA8DF8114010218DF821
:100DC0001010C0B28DF8120004A8029900F076F855
:100DD000C0B207286ED104A800F1010A42F6943887
:100DE000C0F60008002100E0039948B2B0F1FF3FCF
:100DF000C8BF01313ADD0391002004908DF8200036
:100E00000790CDE905000298047940798DF810002B
:100E10004FF0080942F6FE60C0F60000B9F1000F7D
:100E20000BD0B9F1100F4E4628BF1026A9EB0609CA
:100E300000EB060B054625B9D6E700258346002DB5
:100E4000D2D0CDF80080504631462A46334601F0D4
:100E500069FA721C204604A9FFF788F9C0B200287D
:100E60005846DBD0002D0399BFD023E040F20E207E
:100E7000ADF8100004A8029900F020F8C0B20728CD
:100E800018D14FF481710298A0F80910037A42F644
:100E9000FC71C0F6000151F8231043F20C02C0F6B9
:100EA000000252F823201143C0F80B100021002249
:100EB000FFF7FEFE09B0BDE8000FF0BDB0B502AF10
:100EC00086B00C460178CA1ED3B21B2B28BF052260
:100ED000D2B2DFE812F01B00960077008D002F00E1
:100EE000AA00F300900002015C00FA0028005600FE
:100EF000D80025007A0022009900F6002A01A000FF
:100F0000D00020013101680061003901407807F804
:100F1000160C812007F8170C20E14078A030DFE0A4
:100F20004078B030DCE0407807F8160C202007F855
:100F3000170C13E141788278C37800794FF47F452C
:100F400027F8125C07F8130C07F8142C07F8153C67
:100F5000002007F8160C263107F8171CCDE904000D
:100F600042F68430C0F60000009004AD681CA7F182
:100F700017020721072301F0D5F920792946082215
:100F8000FFE0B0F8010027F8160C212080E040783F
:100F9000012161F31F101CE040788D2107F8171C18
:100FA00080001030D8E00020CDE9040042F6843003
:100FB000C0F60000009004AD681C42F60672C0F650
:100FC00000029BE04078A6308AE04078012161F37E
:100FD0009F1007F8170C0020CDE9040042F684307A
:100FE000C0F60000009004AD681CA7F1170286E06F
:100FF0004078AE3074E0B0F8010027F8160CA3205A
:1010000046E04078A4306BE0407807F8160CA82042
:1010100007F8170CA2E041788078DA2207F8172C3D
:10102000090141EA4010023096E042788378C578A1
:10103000007907F8120C07F8135C07F8142C07F86E
:10104000153C002007F8160C41F0280107F8171C82
:10105000CDE9040042F68430C0F60000009004ADF3
:10106000681CA7F117020621062301F05BF920791D
:101070002946072285E041788078D52207F8172C89
:1010800000F00F0066E0B0F8010027F8160C2220EF
:1010900007F8170C0020CDE9040042F68430C0F6B2
:1010A0000000009004AD681CA7F117020321032380
:1010B00001F038F920792946042262E040782E3088
:1010C0000EE04078C000C0300AE0407800F00F0128
:1010D00007F8171C000910303EE0407800F00F00C0
:1010E00007F8170C0020CDE9040042F68430C0F662
:1010F0000000009004AD681CA7F117020121012334
:1011000001F010F9207929460222FFF72FF8014655
:101110000120C9B239E041788078D92207F8172C2C
:1011200001F00F0141EA001016E0407807F8160CB4
:10113000D32007F8170C11E04078000107F8160CCF
:10114000DB2007F8170C09E041788078AD2207F81A
:10115000172C400140EA011007F8160C0020CDE9D9
:10116000040042F68430C0F60000009004AD681C14
:10117000A7F117020221022301F0D4F820792946B1
:101180000322FEF7F3FFC1B20120002908BF0720A8
:1011900006B0B0BD80B56F4600F000F880B56F4670
:1011A000A6B001F0D3FB044601F0CCFB40F20100F5
:1011B000C2F200000578002D04BF01210170E00794
:1011C00008BF01F0C1FB2DB142F61470C0F600005B
:1011D00001F062F801F0BAFB044601F0B3FB40F203
:1011E0000000C2F200000578002D04BF012101704B
:1011F000E00708BF01F0A8FB2DB142F62470C0F64D
:10120000000001F049F801F07CFB01F085FB01F0E2
:101210008EFB01F016F94FF00054046101F011F952
:1012200001F00FF94168032262F31751416001F0A8
:1012300008F904614FF00008CDF840804AF2002020
:10124000C0F24A400F9001260E96CDF8308045F24C
:101250000010C0F22520CDE90A60CDF8208041F2CF
:101260000020C0F27A00CDE906601AAD06A9284632
:1012700001F0DAF96C467A1E2046294601F0EBF8B7
:10128000204601F033FB129001F0C6F807F8490C34
:1012900001F0D7F84FF4005AC0F810A012A844F299
:1012A0004021C0F20F0101F0C1FA01F0C5F84FF47E
:1012B0008001016101F0C0F801F0BEF80168072566
:1012C00065F31B61016001F0B7F84FF400010161A3
:1012D00001F0B2F801F0B0F8016865F31F71016028
:1012E00040F20429C4F24229C9F88061C9F80060BB
:1012F000C9F80080204601F090F9044640F2004011
:10130000C4F20000016821F0010101604FF6FE7196
:101310000161C0F82480210A48F65932C0F24F1208
:10132000A1FB02124FF0FF3101EB12110B0C836293
:1013300006EB11411209B2FBF1F102290ED301397A
:10134000C162016841F0040101604661016821F059
:1013500004010160016841F00101016001F071F8D0
:10136000C0F810A044F23C00CDE914408DF85A803A
:101370004FF40070ADF858000620ADF8180006A82C
:1013800014A9FFF79BFDC0B2072840F0AF800020F2
:101390008DF81A0040F61800ADF8180006A814A938
:1013A000FFF78CFDC0B2072840F0A08043F6147010
:1013B000ADF8180006A814A9FFF780FDC0B20728F1
:1013C00040F094801620ADF8180006A814A9FFF785
:1013D00075FDC0B2072840F089801220ADF81800D2
:1013E00006A814A9FFF76AFDC0B207287ED14FF402
:1013F0008E70ADF8180006A814A9FFF75FFDC0B203
:10140000072873D140F20E20ADF8180006A814A9E1
:10141000FFF754FDC0B2072868D100208DF81A00EC
:1014200040F21710ADF8180006A814A9FFF746FD02
:10143000C0B207285AD114A80021FFF70BFAC0B296
:10144000072853D114A8FFF73BFAC0B207284DD1A3
:1014500040F21A40ADF8180006A814A9FFF72EFDB7
:10146000C0B2072842D10420ADF8180006A814A97C
:10147000FFF724FDC0B2072838D10520ADF81800C9
:1014800006A814A9FFF71AFDC0B207282ED109201B
:10149000ADF8180006A814A9FFF710FDC0B2072880
:1014A00024D14FF48370ADF8180006A814A9FFF7F3
:1014B00005FDC0B2072819D14FF48170ADF859006D
:1014C0009DF8580042F6FC71C0F6000151F820105A
:1014D00043F20C02C0F6000252F820000843CDF897
:1014E0005B0014A800210022FFF7E2FB00F0A9FF37
:1014F0004FF00051016114A8FFF732FC00F0A6FF85
:1015000000F0A4FF016841F07061016000F09EFFEF
:1015100000F09CFF016841F070410160019D039C57
:1015200017F8496CA7F1490000F082FF01684FF6F7
:10153000FD72CFF6FF021140002E08BF01F10071CD
:1015400001600120C9F8D001C9F850000026C9F88F
:1015500050604FF4C87001F068F9002E40F06981C6
:1015600041F68020C0F2060041F67F21C0F206015C
:10157000884240F25E81239001202290249522A887
:10158000FFF7C2F822AA07CA06AB07C360208DF88E
:1015900034000A218DF830104DF68361C4F21B31FE
:1015A000A4FB0112910C4FF47A7251430B91CDE9D7
:1015B00009118DF86A60ADF8680006A81AAD6021BF
:1015C0002A460323FEF7BBFE00F036FF4FF0006112
:1015D000016100F031FF00F02FFF4168072262F344
:1015E0000F31416000F032FF4FF48051016100F093
:1015F0002DFF4168082464F31341416000F026FF89
:101600004FF40051016100F021FF416864F317516C
:10161000416000F01BFF4FF48041016100F016FFB4
:10162000416864F31B61416000F010FF4FF400411A
:10163000016100F00BFF416864F31F71416007F81E
:10164000356C4FF00009199614A8FFF789FB9DF837
:10165000344012AE4FF0020B0DF1800842F6AC4A56
:10166000C0F6000A13E00A2880F0CE8042F66C71C2
:10167000C0F6000131F810006FF31F3040BAADF82A
:10168000680006A821462A460223FEF758FE00F00D
:10169000DDFE8068C0042ED43046142101F0F4F839
:1016A00000F0D4FE8068C004FAD53046142101F061
:1016B000EBF817F8350C04284FF0000138BF411C37
:1016C00007F8351CCDF87890CDF86CB042F6407034
:1016D000C0F600001A900120CDE91C8042F22B20B8
:1016E000C0F600002190A7F13500209014A85146C3
:1016F0002A4600F0D4FC00F0A9FE806880042BD4B8
:101700003046142101F0C0F800F0A0FE806880048B
:10171000FAD53046142101F0B7F819980A284FF08D
:10172000000138BF411C1991CDF87890CDF86CB00C
:1017300042F65C70C0F600001A900120CDE91C80D2
:1017400041F68500C0F60000219019A8209014A849
:1017500051462A4600F0A3FC00F078FE8068400461
:101760000CD43046142101F08FF800F06FFE806831
:101770004004FAD53046142101F086F800F066FEE8
:10178000806800040CD43046142101F07DF800F08C
:101790005DFE80680004FAD53046142101F074F82B
:1017A00017F8351C04293FF672AF1998DFE801F0ED
:1017B0000403111B070056E7ADF8689061E70A289B
:1017C0001BD242F66C71C0F6000101EB4000808F25
:1017D00052E70A281FD242F66C71C0F6000101EBF5
:1017E0004000808A48E70A281CD242F66C71C0F695
:1017F000000101EB4000008D3EE742F6EC72C0F6BE
:1018000000020A2100F020F842F6BC72C0F6000285
:101810000A2100F019F842F6CC72C0F600020A2143
:1018200000F012F842F6DC72C0F600020A2100F065
:101830000BF842F66A40C0F6000042F69C42C0F641
:101840000002322100F018FC80B56F468CB0CDE963
:1018500000010020069002200390084902910590A3
:1018600008A8049006480B906946CDE9090101A833
:10187000089002A8114600F07AF800BF7C300008FA
:1018800085180008F0B503AF2DE9000F87B00B46AF
:10189000046842F210718C42A7F1260C43F28C08C6
:1018A000C0F600083BD30393002041F25979CDF2F2
:1018B000B71941F27B4A4FF0640B4EF2FF0EC0F2B3
:1018C000F55E0CEB0005A4FB0936730B03FB114618
:1018D00062461FFA86FC4FEA9C01944601FB0AF11E
:1018E000490C38F81120EA8001FB1B6189B238F8F5
:1018F0001110298142F21071043874451C46E0D859
:1019000000F10A011C46039B632C0BD820460A28D1
:1019100019D338F8100002392CF8010018E00A2118
:10192000632CF3D9A0B2800841F27B425043400CB3
:10193000642200FB124292B238F8122002392CF8CD
:1019400001200A28E5D2013940F030000CF80100EE
:10195000C1F10A006144CDE90010184601210122BD
:10196000002300F00FF807B0BDE8000FF0BD80B510
:101970006F4684B00122ADF80C20CDE9010101A829
:1019800000F0DFFCF0B503AF2DE9000F85B09946FC
:101990001446FD6859B1D0F814B01BF0010101EBF9
:1019A000050A4FF02B0108BF4FF4881104E0D0F86E
:1019B00014B005F1010A2D210491D7F808805FEADF
:1019C0004B7101D400245EE0B9F1100F34D2B9F1AB
:1019D000000F39D05FEA990109F0030C4FF00002C3
:1019E00034D0039501F00301A2EB8103A646E61E65
:1019F000002116F9045F16F9014C14F1410FC8BF1C
:101A0000013115F1410FC8BF013196F9015015F1AF
:101A1000410FC8BF013196F9025015F1410FC8BFFF
:101A20000131043A9342E4D153420A46039D74467D
:101A3000BCF1000F0ED125E006462046494600F0D5
:101A4000D5F8024630461DE000221BE00023BCF121
:101A5000000F17D0E15611F1410FC8BF0132BCF1A0
:101A6000010F0FD0E11891F9013013F1410FC8BFF8
:101A70000132BCF1020F05D091F9021011F1410FB2
:101A8000C8BF013292440168B9B1CDF80C80D0F8DA
:101A90000480D04521D95FEA0B7134D4A8EB0A0247
:101AA000017E032908BF0121002952D0A346AA467E
:101AB000012952D11146002252E02346D0E90746BF
:101AC000CDF8009020463146049A00F0B2FA002882
:101AD0007AD1F368204641460EE02346D0E9074616
:101AE000CDF8009020463146049A00F0A2FA002872
:101AF0006AD1F368204603992A4605B0BDE8000F75
:101B0000BDE8F0401847D0F810B030210161017EE7
:101B100001910121017602902346D0E90746CDF8D4
:101B2000009020463146049A00F083FA01460120D5
:101B300000294AD1A946A8EB0A00451CDDF80C8013
:101B4000013D3BD032692046302190470028F7D034
:101B50003AE00292A346AA4603E051080132520835
:101B600002924D1C0669D0E90748013D07D0D8F81C
:101B700010202046314690470028F6D024E0CDF8CA
:101B8000009020464146049A5B4600F052FAD8B9CC
:101B9000D8F80C302046039952469847A0B9002542
:101BA000DDF80890A9451BD0D8F810202046314612
:101BB000904701350028F5D0691E12E0F3682046F1
:101BC00041464A46984720B1012005B0BDE8000FC4
:101BD000F0BDDDE901100176C0F810B00020F4E797
:101BE00049460020494538BF0120EEE7F0B503AF74
:101BF0002DE9000F81B08246033020F00304A4EBEE
:101C00000A0841452ED2002941D08B0801F003017A
:101C10004FF0000000F0EF81A0EB8303AAF1030670
:101C2000002516F9042F16F9014C14F1410FC8BF15
:101C3000013512F1410FC8BF013596F9012012F1AB
:101C4000410FC8BF013596F9022012F1410FC8BFFC
:101C5000013504388342E4D143422846002940F04C
:101C6000CC81E2E1A1EB080E5FEA9E09CBD00EF039
:101C7000030C544501D1002045E0AAEB040010F10B
:101C8000040F06D900200021544523D13BE0002059
:101C9000CBE1AAF103050021002015F9046F15F925
:101CA000012C12F1410FC8BF013016F1410FC8BF1E
:101CB000013095F9012012F1410FC8BF013095F9AB
:101CC000022012F1410FC8BF01300439E5D1494269
:101CD000544518D01AF9012012F1410FC8BF013044
:101CE000B8F1010F0FD0514491F9012012F1410FC9
:101CF000C8BF0130B8F1020F05D091F9021011F1FF
:101D0000410FC8BF01300AEB08020026BCF1000FEA
:101D10001AD02EF00301114491F9005015F1410F32
:101D2000C8BF0126BCF1010F0ED091F9015015F189
:101D3000410FC8BF0136BCF1020F05D091F9021066
:101D400011F1410FC8BF013630444FF0FF1811E0C8
:101D50000026A9EB0B090AEB8B021BF0030508EA2E
:101D6000162126F0FF23194401EB014100EB11403D
:101D700040F01481B9F1000F00F057819246B9F19B
:101D8000C00FCB4628BF4FF0C00BB9F1040FDFD313
:101D90006FF00F0101EB8B02012101EB1211302AD0
:101DA000009102D2002655468AE021F00302002667
:101DB000554695E80A506FEA01084FEAD81444EAFC
:101DC000911121F0FE313144DC43E40944EA9313DC
:101DD00023F0FE3319446FEA0C03DB0943EA9C133A
:101DE00023F0FE3319446FEA0E03DB0943EA9E1326
:101DF00023F0FE3319442B69DE43F60946EA9313B8
:101E000023F0FE3319446B69DE43F60946EA931367
:101E100023F0FE331944AB69DE43F60946EA931317
:101E200023F0FE331944EB69DE43F60946EA9313C7
:101E300023F0FE3319442B6ADE43F60946EA931376
:101E400023F0FE3319446B6ADE43F60946EA931326
:101E500023F0FE331944AB6ADE43F60946EA9313D6
:101E600023F0FE331944EB6ADE43F60946EA931386
:101E700023F0FE3319442B6BDE43F60946EA931335
:101E800023F0FE3319446B6BDE43F60946EA9313E5
:101E900023F0FE331944AB6BDE43F60946EA931395
:101EA00023F0FE331944EB6BDE43F60946EA931345
:101EB00023F0FE335E18043A05F140057FF479AF54
:101EC000009911F0030C4FF0FF183FF442AF95E872
:101ED0001A40CA43D20942EA911121F0FE3131443D
:101EE000DA43D20942EA931222F0FE321144E2436D
:101EF000D20942EA941222F0FE3211446FEA0E0235
:101F0000D20942EA9E1222F0FE325618BCF1010FAD
:101F10003FF41FAF05F1100E9EE80E40CC43E409DC
:101F200044EA911121F0FE313144D443E40944EAFA
:101F3000921222F0FE321144DA43D20942EA93129D
:101F400022F0FE3211446FEA0E02D20942EA9E12DA
:101F500022F0FE325618BCF1020F3FF4FAAE2035E3
:101F60002ECDCC43E40944EA911121F0FE313144F5
:101F7000D643F60946EA921222F0FE321144DA43C1
:101F8000D20942EA931222F0FE321144EA43D20906
:101F900042EA951222F0FE325618DAE60BF0FC0304
:101FA0005AF82310CA43D20942EA911121F0FE32B5
:101FB000012D13D00AEB83014B68DE43F60946EA94
:101FC000931323F0FE331A44022D07D08968CB43C4
:101FD000DB0943EA911121F0FE310A44FF21C0F2EE
:101FE000070101EA122122F0FF22114401EB014115
:101FF00000EB114019E00023B9B11AF9032012F1E6
:10200000410FC8BF013001290FD00AEB030292F93A
:10201000013013F1410FC8BF0130022905D092F9F8
:10202000021011F1410FC8BF013001B0BDE8000F2F
:10203000F0BDF0B503AF4DF8048D1C460E46D7F841
:102040000880B2F5881F0AD03369054611469847C3
:102050000146284619B101205DF8048BF0BD3CB162
:10206000F368214642465DF8048BBDE8F04018470E
:1020700000205DF8048BF0BD80B56F4688B09446B3
:10208000002304930122019206AA009203930422E2
:102090000292CDE9060168466146FFF768FCF0B59B
:1020A00003AF2DE9000F8BB09246CDE90901032063
:1020B0008DF82000002007902021069104900290C6
:1020C0001669002E5CD0DAF81400002800F0818038
:1020D0004FEA401BDAF80040DAF80850013820F0E7
:1020E0007840013001904FF000084FF0000904EBF8
:1020F00009014A6832B1DDE90903DB6809689847DC
:10210000002878D106EB08000069069006EB8900EC
:10211000017F8DF82010D0E90221836907934AB12D
:10212000012A02D155F831200AB1002203E005EB63
:10213000C10149680122CDE9022156F80820022A8E
:1021400005D04168012A07D155F831200AB1002293
:1021500003E005EBC10149680122CDE90421416991
:1021600055F8310005EBC1014A6802A990470028E3
:1021700041D108F1200809F10809C345B7D126E08B
:10218000DAF80C0028B3DAF8084004EBC009DAF8F2
:1021900000B0013820F060400130019000260DF1C0
:1021A00008080BEBC6014A682AB1DDE90903DB68C0
:1021B00009689847F8B904EBC605D5E9000241461D
:1021C0009047C0B9013605F108004845E9D10199A9
:1021D00000E00021DAF8040081420ED20A46DAF863
:1021E000000050F8311000EBC2004268DDE909033D
:1021F000DB68984708B1012000E000200BB0BDE883
:10220000000FF0BD80B56F4686B0014600200490F7
:102210000122019243F27012C0F600020092039074
:10222000042002906846FFF7A2FB80B56F4684B099
:102230000278642A10D329205043030B642003FB47
:102240001020C0B243F28C02C0F6000232F8100037
:1022500027F8020C002003E00A2A06D202201346C7
:1022600043F03002FB1E1A5408E043F28C00C0F623
:10227000000030F8120027F8020C012080F0030261
:10228000FB1E1844CDE9000208460121012200236B
:10229000FFF778FB04B080BD80B56F46024643F27D
:1022A0001D00C0F600002B21FFF7E6FE80B56F464B
:1022B00003460846194600F000F880B56F468CB01A
:1022C000CDE90001002006900320039043F2102086
:1022D000C0F6000002900220059008A8049041F684
:1022E0008500C0F600000B9001A9CDE90901684600
:1022F000089002A81146FFF73AFB80B56F4686B0FA
:102300000146002004900122019243F2B412C0F66B
:10231000000200920390042002906846FFF727FB1A
:10232000FEE7704780B56F468C46994204D111464E
:10233000624600F00EFB80BDBA6860461946FFF7A2
:10234000B5FFFEE741B2B1F1FF3FC2BFC0B2C00866
:10235000704780B56F4643F22820C0F6000043F274
:102360009022C0F600020D21FFF786FE80B56F4671
:102370008178C1B102780132D2B2B2FBF1F303FB32
:102380001122027052B9C17899B1437801335FFAD2
:1023900083FCBCFBF1F303FB11C14170D0B2B0FA76
:1023A00080F0400980BD43F20430C0F60000FFF722
:1023B000A4FF43F21430C0F60000FFF79EFFC1787F
:1023C00000291FBF00220270427801321FBFD2B223
:1023D000B2FBF1F303FB112141701CBF08467047AB
:1023E00080B56F4643F22430C0F60000FFF785FF4A
:1023F000C9B2837890F803C0013BDBB2994238BF81
:102400000B460370D1B2ACF10102D2B2914238BF97
:102410000A4642707047704740F28010C4F2422072
:102420000121C0F880110160002101600120704786
:102430000420C4F20100704740F60000C4F201001D
:10244000704741F20000C4F20100704740F60040BE
:10245000C4F201007047F0B503AF2DE9000F87B05B
:102460000C7A012C0DD1D1E9002340F60016C0F200
:102470003D06002A18BF1E464A7A023206FB02F3C6
:1024800007E00A68002A12BF4B6841F20023C0F23D
:102490007A03CA7A05928D7B192206950B2D88BF87
:1024A0001A224E7B04960E7B03960E68002546F694
:1024B000004CC0F2DC2C4AF20129C0F24A49002C3F
:1024C000029418BF002E0BD0A3EB0C05B5FA85F5CE
:1024D0006D09A3EB09040134B4FA84F464092543BB
:1024E00001954B4525D2069D2A4402F01F02049D0A
:1024F0000535022423FA02F205F0070A059D04EBD4
:10250000450522FA0AFCBCFBF5FB49F68074C0F2D3
:10251000D504A3450DD8039D6C1D04F0070822FACD
:1025200008FE45F20014C0F22524A64598BFCC450C
:102530000AD343F2E430C0F6000043F27042C0F622
:1025400000028A21FFF798FD46F60044C0F2DC2421
:1025500001343225A34238BF312543F20164C0F271
:102560006E14A34238BF302542F20004C4F20204C4
:10257000256041F20009C4F202094EB1D9F80040C9
:1025800044F48034C9F80040D9F80040A403FBD5D6
:10259000029CBCB14C7A04F00F04D9F8045025F425
:1025A000741545EA844444EA0644C9F80440D9F85D
:1025B000004044F08074C9F80040D9F80040A401FC
:1025C000FBD50226019C8475C0E9002EC0E902C338
:1025D000C0F810B0012202FA0AF3437502FA08F2B9
:1025E0000275887A46EA8050D9F804100C22CFF69A
:1025F000BF721140059A41EA8231049A41EAC22130
:10260000039A41EA0221069A41EA02110844C9F8F4
:10261000040007B0BDE8000FF0BD017D013918BF0F
:102620000121406888407047F0B503AF2DE90007ED
:10263000D1E9009C0A6AB9F1010F06D1002A62466D
:1026400008D14FF0000E634627E05AB140F6001261
:10265000C0F23D02002A00F0D0804B6AB3FBF2F6D4
:10266000012E0AD141F20023C0F27A03B9F1000F22
:1026700018BF63464FF0000E0FE010259A4288BF46
:102680000125112E28BF2E469A4288BF2E4606FBF2
:1026900002F3A6F102084FF0010E8A68012A07D161
:1026A000CA68002A00F0AF80B3FBF2F2022A21D2FE
:1026B0004FF0070A1922524402F01F0223FA02F4D3
:1026C00045F20015C0F22525AC4238BF2546D1E9B8
:1026D0000462002E08BF2A46002A00F08880A51850
:1026E000013DB5FBF2F2022A01D2032616E006D123
:1026F000042613E0022A07D14FF0080ADAE7D51EB4
:10270000032D06D2052609E0062A4ED24FF0090A0B
:10271000D0E7063A0726062A38BF06268A6932B16C
:10272000CA69002A75D0B4FBF2F5022D2DD203221E
:102730008D6A012D0DD1C96A002970D002F11D05E5
:1027400005F01F05EC40B4FBF1F4032C20D200216E
:1027500000E0032180F80EA080F8098080F808E0EE
:10276000C0E9009C42730673C1724AF20021C0F2B4
:102770004A41591A18BF01210EEA090282F00102EA
:1027800011438172BDE80007F0BD05D10422CFE7F7
:10279000052C05D20121DDE7062D0BD20522C7E766
:1027A0000321082C38BF0221D4E70C2A07D24FF0AE
:1027B0000A0A7FE707220C2D38BF0622B8E7282A2D
:1027C00002D24FF00B0A75E7602A02D24FF00C0AD2
:1027D0000BE0C02A02D24FF00D0A06E04FF00F0ABC
:1027E000B2F5C07F38BF4FF00E0A1A2263E743F2FA
:1027F000B430C0F60000FFF705FD43F29430C0F698
:102800000000FFF7FFFC43F2A430C0F60000FFF722
:10281000F9FC43F2C430C0F60000FFF7F3FC43F2CA
:10282000D430C0F60000FFF7EDFC704700684DF6AD
:102830008362C4F21B32A0FB0202900C48430028C2
:1028400008BF704780B56F464EF21001CEF200010E
:102850006FF07F4C4FF0000E60456FF07F4238BF45
:1028600002464A60C1F808E00B6843F001030B60C0
:102870000B68DB03FCD50B6823F001030B60801AA7
:10288000EAD1BDE88040704700684DF68362C4F22B
:102890001B32A0FB0202900C89B248434FF47A71BC
:1028A0004843002808BF704780B56F464EF21001BC
:1028B000CEF200016FF07F4C4FF0000E60456FF0DC
:1028C0007F4238BF02464A60C1F808E00B6843F017
:1028D00001030B600B68DB03FCD50B6823F00103DD
:1028E0000B60801AEAD1BDE8804070474EF21001BB
:1028F000CEF200010A6822F004020A600068C008F3
:10290000704740F28810C4F242200121C0F88011C3
:10291000016000210160704740F28C10C4F2422037
:102920000121C0F88011016000210160704740F270
:102930009010C4F242200121C0F8801101600021F2
:102940000160704772B6704762B67047EFF310804F
:10295000704700F000B8F0B503AF2DE90007102A6A
:102960001ED3434203F0030800EB0803834233D92C
:10297000A8F1010CB8F1000F06460D461AD00D461D
:10298000064615F801EBB8F1010F06F801EB11D07E
:102990004E78B8F1020F467008D18D1C861C09E0F4
:1029A00084460CEB02039C453ED36AE08E78CD1C36
:1029B0008670C61CBCF1030F0ED3043D043E15F80F
:1029C000044F06F8044F6C787470AC78B470EC78EF
:1029D000F470341D9C42F2D1A2EB080E41442EF05B
:1029E000030203EB020C8C0758D1634515D20C4649
:1029F000256843F8045B63450FD2656843F8045BC0
:102A000063453EBFA56843F8045B634505D2E568AE
:102A1000103443F8045B6345EAD311440EF003021B
:102A20000CEB02039C452CD212F00304A2F1010E20
:102A300013D00E46654616F8012B012C05F8012B24
:102A40000DD04A78022C8CF801201DD18E1C0CF17F
:102A50000205BEF1030F05D213E065460E46BEF136
:102A6000030F0ED3311F2A1F11F8046F02F8046FF1
:102A70004E7856708E789670CE78D670161D9E421F
:102A8000F2D1BDE80007F0BDCE1C0CF103058A7839
:102A90008CF80220BEF1030FE4D2F2E76345BCD20A
:102AA000182404EAC10821F00304CE0004F108054B
:102AB0007642246806F0180924FA08FA55F8044CFE
:102AC00004FA09F646EA0A0643F8046B6345A4D201
:102AD00024FA08FA2C6804FA09F646EA0A0643F8CA
:102AE000046B63453FBF24FA08FA6C6804FA09F6E0
:102AF00046EA0A063CBF43F8046B63458DD224FACC
:102B000008FAAC68103504FA09F646EA0A0643F8F2
:0C2B1000046B6345D0D380E7FEE7D4D40B
:102B1C00433A5C55736572735C5A68616E675C2EE0
:102B2C00636172676F5C72656769737472795C73E9
:102B3C0072635C727370726F78792E636E2D65336D
:102B4C0064653033396232353534633833375C641D
:102B5C006973706C61792D696E74657266616365F9
:102B6C002D6932632D302E342E305C7372635C6CA5
:102B7C0069622E72730000001C2B000865000000B7
:102B8C002C0000002B0000001C2B0008650000002E
:102B9C004900000031000000433A5C5573657273C4
:102BAC005C5A68616E675C2E636172676F5C7265FC
:102BBC006769737472795C7372635C727370726F31
:102BCC0078792E636E2D6533646530333962323516
:102BDC003534633833375C66756769742D302E3342
:102BEC002E375C7372635C726174652E72730000B5
:102BFC00A42B0008560000004B020000010000004E
:102C0C00433A5C55736572735C5A68616E675C2EEF
:102C1C00636172676F5C72656769737472795C73F8
:102C2C0072635C727370726F78792E636E2D65337C
:102C3C0064653033396232353534633833375C731D
:102C4C00746D3332663178782D68616C2D302E318D
:102C5C00302E305C7372635C6932632E72736173F5
:102C6C0073657274696F6E206661696C65643A2075
:102C7C006D6F64652E6765745F6672657175656EE0
:102C8C0063792829203C3D206B487A283430302940
:102C9C000C2C00085E000000AD00000009000000D4
:102CAC0000000000100000000400000001090008F2
:102CBC00C107000847080008002F000000000300AF
:102CCC0003000000123F12123F122E2A7F2A3A00F4
:102CDC00231308043231102A252A10200201000087
:102CEC0000001E2100000000211E00000000082A28
:102CFC001C2A080008083E0808008060000000003C
:102D0C0008080808080030300000000020100804F3
:102D1C0002001E312925231E22213F20202032298A
:102D2C002929292612212125251A1814123F1000B1
:102D3C001725252525191E252525251801013109BD
:102D4C0005031A252525251A06292929291E2400BB
:102D5C000000000080640000000008142200000045
:102D6C001414141414002214080000000201012988
:102D7C0005021E212D2B2D0E3E090909093E3F256A
:102D8C002525251A1E21212121123F212121120C3A
:102D9C003F25252525213F05050505011E2121215E
:102DAC00291A3F040404043F21213F212100102053
:102DBC002020201F3F040C0A11203F20202020201F
:102DCC003F020404023F3F020408103F1E21212150
:102DDC00211E3F09090909061E212931215E3F09DF
:102DEC00090919261225252525180101013F010184
:102DFC001F202020201F0F102020100F1F2010102C
:102E0C00201F21120C0C122101023C020100213165
:102E1C00292523213F210000000002040810200076
:102E2C00213F0000000004023F02040040404040EB
:102E3C004040010200000000102A2A2A3C003F24D6
:102E4C00242418001C2222220000182424243F00D1
:102E5C001C2A2A2A2400003E0501000018A4A4A460
:102E6C007C003F040404380000243D200000204076
:102E7C00403D00003F0C122000001F2020000000ED
:102E8C003E023C023C003E0202023C001C2222227A
:102E9C001C00FC242424180018242424FC003E04C8
:102EAC0002020000242A2A2A1000021F22200000FD
:102EBC001E2020201E000618201806001E301C3074
:102ECC001E002214081422001CA0A0A07C00223298
:102EDC002A2622000C3F210000003F0000000000C9
:102EEC00213F0C0000000201020100000000000064
:102EFC0000000000000000000000E37372635C6DD2
:102F0C0061696E2E72730000072F00080B00000021
:102F1C002500000027000000072F00080B00000010
:102F2C00260000002C00000076206D6F646520697F
:102F3C0073200A00342F00080A0000003E2F0008FE
:102F4C000100000063206D6F646520697320000030
:102F5C00502F00080A0000003E2F0008010000005E
:102F6C000000000000000000000000000000000055
:102F7C000000000000000000000000000000000045
:102F8C000000000000000000FFFF00000000000037
:102F9C000000000000000000000000000000000025
:102FAC000000000000000000000000000000000015
:102FBC00072F00080B000000DE00000035000000A9
:102FCC00072F00080B000000E30000003500000094
:102FDC00072F00080B000000E8000000350000007F
:102FEC00072F00080B000000ED000000350000006A
:102FFC000000100000000800000010000000080095
:10300C000000000800000010000000080000001084
:10301C002963616C6C656420604F7074696F6E3AE3
:10302C003A756E77726170282960206F6E2061206E
:10303C00604E6F6E65602076616C7565696E646557
:10304C0078206F7574206F6620626F756E64733AAA
:10305C0020746865206C656E20697320206275741D
:10306C002074686520696E6465782069732000009F
:10307C0048300008200000006830000812000000F2
:10308C003030303130323033303430353036303718
:10309C0030383039313031313132313331343135FE
:1030AC0031363137313831393230323132323233E4
:1030BC0032343235323632373238323933303331CA
:1030CC0033323333333433353336333733383339B0
:1030DC0034303431343234333434343534363437A8
:1030EC00343834393530353135323533353435358E
:1030FC003536353735383539363036313632363374
:10310C003634363536363637363836393730373159
:10311C00373237333734373537363737373837393F
:10312C003830383138323833383438353836383737
:10313C00383838393930393139323933393439351D
:10314C003936393739383939617474656D70742092
:10315C00746F20646976696465206279207A65727F
:10316C006F00000054310008190000006174746590
:10317C006D707420746F2063616C63756C61746521
:10318C00207468652072656D61696E646572207764
:10319C0069746820612064697669736F72206F6648
:1031AC00207A65726F000000783100083900000049
:1031BC00636F70795F66726F6D5F736C6963653A8C
:1031CC0020736F7572636520736C696365206C6521
:1031DC006E67746820282920646F6573206E6F7485
:1031EC00206D617463682064657374696E617469C1
:1031FC006F6E20736C696365206C656E67746820F4
:10320C0028000000BC31000826000000E231000854
:10321C002B0000001C3000080100000050616765A5
:10322C0020746F6F2068696768433A5C55736572E8
:10323C00735C5A68616E675C2E636172676F5C7257
:10324C00656769737472795C7372635C72737072A4
:10325C006F78792E636E2D65336465303339623245
:10326C00353534633833375C737364313330362D12
:10327C00302E382E345C7372635C636F6D6D616ECF
:10328C00642E7273353200085B000000FA000000F7
:10329C0012000000433A5C55736572735C5A6861A6
:1032AC006E675C2E636172676F5C726567697374BD
:1032BC0072795C7372635C727370726F78792E635F
:1032CC006E2D65336465303339623235353463388D
:1032DC0033375C737364313330362D302E382E34E3
:1032EC005C7372635C6D6F64655C7465726D696E42
:1032FC00616C2E7273000000A032000861000000A7
:10330C003B00000014000000A03200086100000027
:10331C003D00000018000000A03200086100000011
:10332C004700000014000000433A5C55736572734B
:10333C005C5A68616E675C2E636172676F5C726564
:10334C006769737472795C7372635C727370726F99
:10335C0078792E636E2D653364653033396232357E
:10336C003534633833375C73746D33326631787847
:10337C002D68616C2D302E31302E305C7372635C95
:10338C007263632E72730000343300085E00000019
:10339C002B0200000D000000343300085E0000001A
:1033AC004502000013000000343300085E000000EA
:1033BC006102000020000000343300085E000000B1
:1033CC006A02000013000000343300085E000000A5
:1033DC008002000013000000617373657274696FE2
:1033EC006E206661696C65643A20737973636C6BEB
:1033FC00203C3D2037325F3030305F30303020267B
:10340C00262068636C6B203C3D2037325F303030B7
:10341C005F3030302026262070636C6B31203C3DB1
:10342C002033365F3030305F3030302026260A2093
:10343C002020202020202070636C6B32203C3D200B
:10344C0037325F3030305F303030202626206164D8
:10345C0063636C6B203C3D2031345F3030305F3027
:10346C0030300000343300085E000000BD02000064
:04347C000900000043
:0400000508000131BD
:00000001FF
